{
  "address": "0x9fE46736679d2D9a65F0992F2272dE9f3c7fa6e0",
  "abi": [
    {
      "inputs": [],
      "stateMutability": "nonpayable",
      "type": "constructor"
    },
    {
      "anonymous": false,
      "inputs": [
        {
          "indexed": true,
          "internalType": "address",
          "name": "account",
          "type": "address"
        },
        {
          "indexed": true,
          "internalType": "address",
          "name": "operator",
          "type": "address"
        },
        {
          "indexed": false,
          "internalType": "bool",
          "name": "approved",
          "type": "bool"
        }
      ],
      "name": "ApprovalForAll",
      "type": "event"
    },
    {
      "anonymous": false,
      "inputs": [
        {
          "indexed": true,
          "internalType": "address",
          "name": "previousOwner",
          "type": "address"
        },
        {
          "indexed": true,
          "internalType": "address",
          "name": "newOwner",
          "type": "address"
        }
      ],
      "name": "OwnershipTransferred",
      "type": "event"
    },
    {
      "anonymous": false,
      "inputs": [
        {
          "indexed": true,
          "internalType": "address",
          "name": "operator",
          "type": "address"
        },
        {
          "indexed": true,
          "internalType": "address",
          "name": "from",
          "type": "address"
        },
        {
          "indexed": true,
          "internalType": "address",
          "name": "to",
          "type": "address"
        },
        {
          "indexed": false,
          "internalType": "uint256[]",
          "name": "ids",
          "type": "uint256[]"
        },
        {
          "indexed": false,
          "internalType": "uint256[]",
          "name": "values",
          "type": "uint256[]"
        }
      ],
      "name": "TransferBatch",
      "type": "event"
    },
    {
      "anonymous": false,
      "inputs": [
        {
          "indexed": true,
          "internalType": "address",
          "name": "operator",
          "type": "address"
        },
        {
          "indexed": true,
          "internalType": "address",
          "name": "from",
          "type": "address"
        },
        {
          "indexed": true,
          "internalType": "address",
          "name": "to",
          "type": "address"
        },
        {
          "indexed": false,
          "internalType": "uint256",
          "name": "id",
          "type": "uint256"
        },
        {
          "indexed": false,
          "internalType": "uint256",
          "name": "value",
          "type": "uint256"
        }
      ],
      "name": "TransferSingle",
      "type": "event"
    },
    {
      "anonymous": false,
      "inputs": [
        {
          "indexed": false,
          "internalType": "string",
          "name": "value",
          "type": "string"
        },
        {
          "indexed": true,
          "internalType": "uint256",
          "name": "id",
          "type": "uint256"
        }
      ],
      "name": "URI",
      "type": "event"
    },
    {
      "inputs": [],
      "name": "DARKPAINT",
      "outputs": [
        {
          "internalType": "uint256",
          "name": "",
          "type": "uint256"
        }
      ],
      "stateMutability": "view",
      "type": "function"
    },
    {
      "inputs": [],
      "name": "WHITEPAINT",
      "outputs": [
        {
          "internalType": "uint256",
          "name": "",
          "type": "uint256"
        }
      ],
      "stateMutability": "view",
      "type": "function"
    },
    {
      "inputs": [
        {
          "internalType": "address",
          "name": "account",
          "type": "address"
        },
        {
          "internalType": "uint256",
          "name": "id",
          "type": "uint256"
        }
      ],
      "name": "balanceOf",
      "outputs": [
        {
          "internalType": "uint256",
          "name": "",
          "type": "uint256"
        }
      ],
      "stateMutability": "view",
      "type": "function"
    },
    {
      "inputs": [
        {
          "internalType": "address[]",
          "name": "accounts",
          "type": "address[]"
        },
        {
          "internalType": "uint256[]",
          "name": "ids",
          "type": "uint256[]"
        }
      ],
      "name": "balanceOfBatch",
      "outputs": [
        {
          "internalType": "uint256[]",
          "name": "",
          "type": "uint256[]"
        }
      ],
      "stateMutability": "view",
      "type": "function"
    },
    {
      "inputs": [
        {
          "internalType": "address",
          "name": "owner",
          "type": "address"
        }
      ],
      "name": "getBalanceDarkPaint",
      "outputs": [
        {
          "internalType": "uint256",
          "name": "",
          "type": "uint256"
        }
      ],
      "stateMutability": "view",
      "type": "function"
    },
    {
      "inputs": [
        {
          "internalType": "address",
          "name": "owner",
          "type": "address"
        }
      ],
      "name": "getBalanceWhitePaint",
      "outputs": [
        {
          "internalType": "uint256",
          "name": "",
          "type": "uint256"
        }
      ],
      "stateMutability": "view",
      "type": "function"
    },
    {
      "inputs": [
        {
          "internalType": "address",
          "name": "account",
          "type": "address"
        },
        {
          "internalType": "address",
          "name": "operator",
          "type": "address"
        }
      ],
      "name": "isApprovedForAll",
      "outputs": [
        {
          "internalType": "bool",
          "name": "",
          "type": "bool"
        }
      ],
      "stateMutability": "view",
      "type": "function"
    },
    {
      "inputs": [],
      "name": "mint",
      "outputs": [],
      "stateMutability": "nonpayable",
      "type": "function"
    },
    {
      "inputs": [],
      "name": "name",
      "outputs": [
        {
          "internalType": "string",
          "name": "",
          "type": "string"
        }
      ],
      "stateMutability": "pure",
      "type": "function"
    },
    {
      "inputs": [],
      "name": "owner",
      "outputs": [
        {
          "internalType": "address",
          "name": "",
          "type": "address"
        }
      ],
      "stateMutability": "view",
      "type": "function"
    },
    {
      "inputs": [],
      "name": "renounceOwnership",
      "outputs": [],
      "stateMutability": "nonpayable",
      "type": "function"
    },
    {
      "inputs": [
        {
          "internalType": "address",
          "name": "from",
          "type": "address"
        },
        {
          "internalType": "address",
          "name": "to",
          "type": "address"
        },
        {
          "internalType": "uint256[]",
          "name": "ids",
          "type": "uint256[]"
        },
        {
          "internalType": "uint256[]",
          "name": "amounts",
          "type": "uint256[]"
        },
        {
          "internalType": "bytes",
          "name": "data",
          "type": "bytes"
        }
      ],
      "name": "safeBatchTransferFrom",
      "outputs": [],
      "stateMutability": "nonpayable",
      "type": "function"
    },
    {
      "inputs": [
        {
          "internalType": "address",
          "name": "from",
          "type": "address"
        },
        {
          "internalType": "address",
          "name": "to",
          "type": "address"
        },
        {
          "internalType": "uint256",
          "name": "id",
          "type": "uint256"
        },
        {
          "internalType": "uint256",
          "name": "amount",
          "type": "uint256"
        },
        {
          "internalType": "bytes",
          "name": "data",
          "type": "bytes"
        }
      ],
      "name": "safeTransferFrom",
      "outputs": [],
      "stateMutability": "nonpayable",
      "type": "function"
    },
    {
      "inputs": [
        {
          "internalType": "address",
          "name": "operator",
          "type": "address"
        },
        {
          "internalType": "bool",
          "name": "approved",
          "type": "bool"
        }
      ],
      "name": "setApprovalForAll",
      "outputs": [],
      "stateMutability": "nonpayable",
      "type": "function"
    },
    {
      "inputs": [
        {
          "internalType": "bytes4",
          "name": "interfaceId",
          "type": "bytes4"
        }
      ],
      "name": "supportsInterface",
      "outputs": [
        {
          "internalType": "bool",
          "name": "",
          "type": "bool"
        }
      ],
      "stateMutability": "view",
      "type": "function"
    },
    {
      "inputs": [],
      "name": "symbol",
      "outputs": [
        {
          "internalType": "string",
          "name": "",
          "type": "string"
        }
      ],
      "stateMutability": "pure",
      "type": "function"
    },
    {
      "inputs": [
        {
          "internalType": "address",
          "name": "newOwner",
          "type": "address"
        }
      ],
      "name": "transferOwnership",
      "outputs": [],
      "stateMutability": "nonpayable",
      "type": "function"
    },
    {
      "inputs": [
        {
          "internalType": "uint256",
          "name": "",
          "type": "uint256"
        }
      ],
      "name": "uri",
      "outputs": [
        {
          "internalType": "string",
          "name": "",
          "type": "string"
        }
      ],
      "stateMutability": "view",
      "type": "function"
    }
  ],
  "transactionHash": "0x4dbd8a0c63fe57c75a32e11219a151b17a690cc0e9284d5d8773f4645cea66ae",
  "args": [],
  "solcInputHash": "3bdfaf3aebb3af465250786719384e67",
  "bytecode": "0x60806040523480156200001157600080fd5b5060405180606001604052806026815260200162001f9960269139620000378162000095565b506200004333620000ae565b620000693360006107d0604051806020016040528060008152506200010060201b60201c565b6200008f3360016107d0604051806020016040528060008152506200010060201b60201c565b62000734565b8051620000aa9060029060208401906200046e565b5050565b600380546001600160a01b038381166001600160a01b0319831681179093556040519116919082907f8be0079c531659141344cd1fd0a4f28419497f9722a3daafe3b4186f6b6457e090600090a35050565b6001600160a01b038416620001665760405162461bcd60e51b815260206004820152602160248201527f455243313135353a206d696e7420746f20746865207a65726f206164647265736044820152607360f81b60648201526084015b60405180910390fd5b336200018c816000876200017a8862000220565b620001858862000220565b5050505050565b6000848152602081815260408083206001600160a01b038916845290915281208054859290620001be908490620005ef565b909155505060408051858152602081018590526001600160a01b0380881692600092918516917fc3d58168c5ae7397731d063d5bbf3d657854427343f4c083240f7aacaa2d0f62910160405180910390a4620001858160008787878762000282565b604080516001808252818301909252606091600091906020808301908036833701905050905082816000815181106200026957634e487b7160e01b600052603260045260246000fd5b602090810291909101015292915050565b505050505050565b620002a1846001600160a01b03166200046860201b620008691760201c565b156200027a5760405163f23a6e6160e01b81526001600160a01b0385169063f23a6e6190620002dd908990899088908890889060040162000593565b602060405180830381600087803b158015620002f857600080fd5b505af19250505080156200032b575060408051601f3d908101601f19168201909252620003289181019062000514565b60015b620003ec576200033a6200068c565b806308c379a014156200037b575062000352620006a5565b806200035f57506200037d565b8060405162461bcd60e51b81526004016200015d9190620005da565b505b60405162461bcd60e51b815260206004820152603460248201527f455243313135353a207472616e7366657220746f206e6f6e204552433131353560448201527f526563656976657220696d706c656d656e74657200000000000000000000000060648201526084016200015d565b6001600160e01b0319811663f23a6e6160e01b146200045f5760405162461bcd60e51b815260206004820152602860248201527f455243313135353a204552433131353552656365697665722072656a656374656044820152676420746f6b656e7360c01b60648201526084016200015d565b50505050505050565b3b151590565b8280546200047c9062000614565b90600052602060002090601f016020900481019282620004a05760008555620004eb565b82601f10620004bb57805160ff1916838001178555620004eb565b82800160010185558215620004eb579182015b82811115620004eb578251825591602001919060010190620004ce565b50620004f9929150620004fd565b5090565b5b80821115620004f95760008155600101620004fe565b60006020828403121562000526578081fd5b81516001600160e01b0319811681146200053e578182fd5b9392505050565b60008151808452815b818110156200056c576020818501810151868301820152016200054e565b818111156200057e5782602083870101525b50601f01601f19169290920160200192915050565b6001600160a01b03868116825285166020820152604081018490526060810183905260a060808201819052600090620005cf9083018462000545565b979650505050505050565b6020815260006200053e602083018462000545565b600082198211156200060f57634e487b7160e01b81526011600452602481fd5b500190565b600181811c908216806200062957607f821691505b602082108114156200064b57634e487b7160e01b600052602260045260246000fd5b50919050565b601f8201601f191681016001600160401b03811182821017156200068557634e487b7160e01b600052604160045260246000fd5b6040525050565b600060033d1115620006a257600481823e5160e01c5b90565b600060443d1015620006b45790565b6040516003193d81016004833e81513d6001600160401b038083116024840183101715620006e457505050505090565b8285019150815181811115620006fd5750505050505090565b843d8701016020828501011115620007185750505050505090565b620007296020828601018762000651565b509095945050505050565b61185580620007446000396000f3fe608060405234801561001057600080fd5b50600436106101155760003560e01c80638d0cece2116100a2578063c4b4fced11610071578063c4b4fced1461025b578063d467f15214610263578063e985e9c514610276578063f242432a146102b2578063f2fde38b146102c557600080fd5b80638d0cece2146102015780638da5cb5b1461020957806395d89b4114610224578063a22cb4651461024857600080fd5b80631249c58b116100e95780631249c58b146101a95780632eb2c2d6146101b357806339c1c841146101c65780634e1273f4146101d9578063715018a6146101f957600080fd5b8062fdd58e1461011a57806301ffc9a71461014057806306fdde03146101635780630e89341c14610196575b600080fd5b61012d6101283660046112e5565b6102d8565b6040519081526020015b60405180910390f35b61015361014e3660046113d9565b61036f565b6040519015158152602001610137565b60408051808201909152600e81526d436f6c6f724d6f6469666965727360901b60208201525b6040516101379190611592565b6101896101a4366004611411565b6103c1565b6101b1610455565b005b6101b16101c13660046111a2565b610491565b61012d6101d436600461114f565b610528565b6101ec6101e736600461130e565b610535565b6040516101379190611551565b6101b1610697565b61012d600081565b6003546040516001600160a01b039091168152602001610137565b60408051808201909152600881526721a62926a7a224a360c11b6020820152610189565b6101b16102563660046112ab565b6106fb565b61012d600181565b61012d61027136600461114f565b61070a565b610153610284366004611170565b6001600160a01b03918216600090815260016020908152604080832093909416825291909152205460ff1690565b6101b16102c0366004611248565b610717565b6101b16102d336600461114f565b61079e565b60006001600160a01b0383166103495760405162461bcd60e51b815260206004820152602b60248201527f455243313135353a2062616c616e636520717565727920666f7220746865207a60448201526a65726f206164647265737360a81b60648201526084015b60405180910390fd5b506000908152602081815260408083206001600160a01b03949094168352929052205490565b60006001600160e01b03198216636cdb3d1360e11b14806103a057506001600160e01b031982166303a24d0760e21b145b806103bb57506301ffc9a760e01b6001600160e01b03198316145b92915050565b6060600280546103d0906116b8565b80601f01602080910402602001604051908101604052809291908181526020018280546103fc906116b8565b80156104495780601f1061041e57610100808354040283529160200191610449565b820191906000526020600020905b81548152906001019060200180831161042c57829003601f168201915b50505050509050919050565b61047233600060646040518060200160405280600081525061086f565b61048f33600160646040518060200160405280600081525061086f565b565b6001600160a01b0385163314806104ad57506104ad8533610284565b6105145760405162461bcd60e51b815260206004820152603260248201527f455243313135353a207472616e736665722063616c6c6572206973206e6f74206044820152711bdddb995c881b9bdc88185c1c1c9bdd995960721b6064820152608401610340565b6105218585858585610979565b5050505050565b60006103bb8260006102d8565b6060815183511461059a5760405162461bcd60e51b815260206004820152602960248201527f455243313135353a206163636f756e747320616e6420696473206c656e677468604482015268040dad2e6dac2e8c6d60bb1b6064820152608401610340565b6000835167ffffffffffffffff8111156105c457634e487b7160e01b600052604160045260246000fd5b6040519080825280602002602001820160405280156105ed578160200160208202803683370190505b50905060005b845181101561068f5761065485828151811061061f57634e487b7160e01b600052603260045260246000fd5b602002602001015185838151811061064757634e487b7160e01b600052603260045260246000fd5b60200260200101516102d8565b82828151811061067457634e487b7160e01b600052603260045260246000fd5b602090810291909101015261068881611720565b90506105f3565b509392505050565b6003546001600160a01b031633146106f15760405162461bcd60e51b815260206004820181905260248201527f4f776e61626c653a2063616c6c6572206973206e6f7420746865206f776e65726044820152606401610340565b61048f6000610b72565b610706338383610bc4565b5050565b60006103bb8260016102d8565b6001600160a01b03851633148061073357506107338533610284565b6107915760405162461bcd60e51b815260206004820152602960248201527f455243313135353a2063616c6c6572206973206e6f74206f776e6572206e6f7260448201526808185c1c1c9bdd995960ba1b6064820152608401610340565b6105218585858585610ca5565b6003546001600160a01b031633146107f85760405162461bcd60e51b815260206004820181905260248201527f4f776e61626c653a2063616c6c6572206973206e6f7420746865206f776e65726044820152606401610340565b6001600160a01b03811661085d5760405162461bcd60e51b815260206004820152602660248201527f4f776e61626c653a206e6577206f776e657220697320746865207a65726f206160448201526564647265737360d01b6064820152608401610340565b61086681610b72565b50565b3b151590565b6001600160a01b0384166108cf5760405162461bcd60e51b815260206004820152602160248201527f455243313135353a206d696e7420746f20746865207a65726f206164647265736044820152607360f81b6064820152608401610340565b336108e9816000876108e088610dc2565b61052188610dc2565b6000848152602081815260408083206001600160a01b0389168452909152812080548592906109199084906116a0565b909155505060408051858152602081018590526001600160a01b0380881692600092918516917fc3d58168c5ae7397731d063d5bbf3d657854427343f4c083240f7aacaa2d0f62910160405180910390a461052181600087878787610e1b565b81518351146109db5760405162461bcd60e51b815260206004820152602860248201527f455243313135353a2069647320616e6420616d6f756e7473206c656e677468206044820152670dad2e6dac2e8c6d60c31b6064820152608401610340565b6001600160a01b038416610a015760405162461bcd60e51b8152600401610340906115ed565b3360005b8451811015610b04576000858281518110610a3057634e487b7160e01b600052603260045260246000fd5b602002602001015190506000858381518110610a5c57634e487b7160e01b600052603260045260246000fd5b602090810291909101810151600084815280835260408082206001600160a01b038e168352909352919091205490915081811015610aac5760405162461bcd60e51b815260040161034090611632565b6000838152602081815260408083206001600160a01b038e8116855292528083208585039055908b16825281208054849290610ae99084906116a0565b9250508190555050505080610afd90611720565b9050610a05565b50846001600160a01b0316866001600160a01b0316826001600160a01b03167f4a39dc06d4c0dbc64b70af90fd698a233a518aa5d07e595d983b8c0526c8f7fb8787604051610b54929190611564565b60405180910390a4610b6a818787878787610f86565b505050505050565b600380546001600160a01b038381166001600160a01b0319831681179093556040519116919082907f8be0079c531659141344cd1fd0a4f28419497f9722a3daafe3b4186f6b6457e090600090a35050565b816001600160a01b0316836001600160a01b03161415610c385760405162461bcd60e51b815260206004820152602960248201527f455243313135353a2073657474696e6720617070726f76616c20737461747573604482015268103337b91039b2b63360b91b6064820152608401610340565b6001600160a01b03838116600081815260016020908152604080832094871680845294825291829020805460ff191686151590811790915591519182527f17307eab39ab6107e8899845ad3d59bd9653f200f220920489ca2b5937696c31910160405180910390a3505050565b6001600160a01b038416610ccb5760405162461bcd60e51b8152600401610340906115ed565b33610cdb8187876108e088610dc2565b6000848152602081815260408083206001600160a01b038a16845290915290205483811015610d1c5760405162461bcd60e51b815260040161034090611632565b6000858152602081815260408083206001600160a01b038b8116855292528083208785039055908816825281208054869290610d599084906116a0565b909155505060408051868152602081018690526001600160a01b03808916928a821692918616917fc3d58168c5ae7397731d063d5bbf3d657854427343f4c083240f7aacaa2d0f62910160405180910390a4610db9828888888888610e1b565b50505050505050565b60408051600180825281830190925260609160009190602080830190803683370190505090508281600081518110610e0a57634e487b7160e01b600052603260045260246000fd5b602090810291909101015292915050565b6001600160a01b0384163b15610b6a5760405163f23a6e6160e01b81526001600160a01b0385169063f23a6e6190610e5f908990899088908890889060040161150c565b602060405180830381600087803b158015610e7957600080fd5b505af1925050508015610ea9575060408051601f3d908101601f19168201909252610ea6918101906113f5565b60015b610f5657610eb5611767565b806308c379a01415610eef5750610eca61177f565b80610ed55750610ef1565b8060405162461bcd60e51b81526004016103409190611592565b505b60405162461bcd60e51b815260206004820152603460248201527f455243313135353a207472616e7366657220746f206e6f6e20455243313135356044820152732932b1b2b4bb32b91034b6b83632b6b2b73a32b960611b6064820152608401610340565b6001600160e01b0319811663f23a6e6160e01b14610db95760405162461bcd60e51b8152600401610340906115a5565b6001600160a01b0384163b15610b6a5760405163bc197c8160e01b81526001600160a01b0385169063bc197c8190610fca90899089908890889088906004016114ae565b602060405180830381600087803b158015610fe457600080fd5b505af1925050508015611014575060408051601f3d908101601f19168201909252611011918101906113f5565b60015b61102057610eb5611767565b6001600160e01b0319811663bc197c8160e01b14610db95760405162461bcd60e51b8152600401610340906115a5565b80356001600160a01b038116811461106757600080fd5b919050565b600082601f83011261107c578081fd5b813560206110898261167c565b60405161109682826116f3565b8381528281019150858301600585901b870184018810156110b5578586fd5b855b858110156110d3578135845292840192908401906001016110b7565b5090979650505050505050565b600082601f8301126110f0578081fd5b813567ffffffffffffffff81111561110a5761110a611751565b604051611121601f8301601f1916602001826116f3565b818152846020838601011115611135578283fd5b816020850160208301379081016020019190915292915050565b600060208284031215611160578081fd5b61116982611050565b9392505050565b60008060408385031215611182578081fd5b61118b83611050565b915061119960208401611050565b90509250929050565b600080600080600060a086880312156111b9578081fd5b6111c286611050565b94506111d060208701611050565b9350604086013567ffffffffffffffff808211156111ec578283fd5b6111f889838a0161106c565b9450606088013591508082111561120d578283fd5b61121989838a0161106c565b9350608088013591508082111561122e578283fd5b5061123b888289016110e0565b9150509295509295909350565b600080600080600060a0868803121561125f578081fd5b61126886611050565b945061127660208701611050565b93506040860135925060608601359150608086013567ffffffffffffffff81111561129f578182fd5b61123b888289016110e0565b600080604083850312156112bd578182fd5b6112c683611050565b9150602083013580151581146112da578182fd5b809150509250929050565b600080604083850312156112f7578182fd5b61130083611050565b946020939093013593505050565b60008060408385031215611320578182fd5b823567ffffffffffffffff80821115611337578384fd5b818501915085601f83011261134a578384fd5b813560206113578261167c565b60405161136482826116f3565b8381528281019150858301600585901b870184018b1015611383578889fd5b8896505b848710156113ac5761139881611050565b835260019690960195918301918301611387565b50965050860135925050808211156113c2578283fd5b506113cf8582860161106c565b9150509250929050565b6000602082840312156113ea578081fd5b813561116981611809565b600060208284031215611406578081fd5b815161116981611809565b600060208284031215611422578081fd5b5035919050565b6000815180845260208085019450808401835b838110156114585781518752958201959082019060010161143c565b509495945050505050565b60008151808452815b818110156114885760208185018101518683018201520161146c565b818111156114995782602083870101525b50601f01601f19169290920160200192915050565b6001600160a01b0386811682528516602082015260a0604082018190526000906114da90830186611429565b82810360608401526114ec8186611429565b905082810360808401526115008185611463565b98975050505050505050565b6001600160a01b03868116825285166020820152604081018490526060810183905260a06080820181905260009061154690830184611463565b979650505050505050565b6020815260006111696020830184611429565b6040815260006115776040830185611429565b82810360208401526115898185611429565b95945050505050565b6020815260006111696020830184611463565b60208082526028908201527f455243313135353a204552433131353552656365697665722072656a656374656040820152676420746f6b656e7360c01b606082015260800190565b60208082526025908201527f455243313135353a207472616e7366657220746f20746865207a65726f206164604082015264647265737360d81b606082015260800190565b6020808252602a908201527f455243313135353a20696e73756666696369656e742062616c616e636520666f60408201526939103a3930b739b332b960b11b606082015260800190565b600067ffffffffffffffff82111561169657611696611751565b5060051b60200190565b600082198211156116b3576116b361173b565b500190565b600181811c908216806116cc57607f821691505b602082108114156116ed57634e487b7160e01b600052602260045260246000fd5b50919050565b601f8201601f1916810167ffffffffffffffff8111828210171561171957611719611751565b6040525050565b60006000198214156117345761173461173b565b5060010190565b634e487b7160e01b600052601160045260246000fd5b634e487b7160e01b600052604160045260246000fd5b600060033d111561177c57600481823e5160e01c5b90565b600060443d101561178d5790565b6040516003193d81016004833e81513d67ffffffffffffffff81602484011181841117156117bd57505050505090565b82850191508151818111156117d55750505050505090565b843d87010160208285010111156117ef5750505050505090565b6117fe602082860101876116f3565b509095945050505050565b6001600160e01b03198116811461086657600080fdfea26469706673582212203308c0726340896105fcedef36e042fb6618c4c4b841f58ab81a94dc5b9b36c264736f6c6343000804003368747470733a2f2f67616d652e6578616d706c652f6170692f6974656d7b69647d2e6a736f6e",
  "devdoc": {
    "kind": "dev",
    "methods": {
      "balanceOf(address,uint256)": {
        "details": "See {IERC1155-balanceOf}. Requirements: - `account` cannot be the zero address."
      },
      "balanceOfBatch(address[],uint256[])": {
        "details": "See {IERC1155-balanceOfBatch}. Requirements: - `accounts` and `ids` must have the same length."
      },
      "isApprovedForAll(address,address)": {
        "details": "See {IERC1155-isApprovedForAll}."
      },
      "owner()": {
        "details": "Returns the address of the current owner."
      },
      "renounceOwnership()": {
        "details": "Leaves the contract without owner. It will not be possible to call `onlyOwner` functions anymore. Can only be called by the current owner. NOTE: Renouncing ownership will leave the contract without an owner, thereby removing any functionality that is only available to the owner."
      },
      "safeBatchTransferFrom(address,address,uint256[],uint256[],bytes)": {
        "details": "See {IERC1155-safeBatchTransferFrom}."
      },
      "safeTransferFrom(address,address,uint256,uint256,bytes)": {
        "details": "See {IERC1155-safeTransferFrom}."
      },
      "setApprovalForAll(address,bool)": {
        "details": "See {IERC1155-setApprovalForAll}."
      },
      "supportsInterface(bytes4)": {
        "details": "See {IERC165-supportsInterface}."
      },
      "transferOwnership(address)": {
        "details": "Transfers ownership of the contract to a new account (`newOwner`). Can only be called by the current owner."
      },
      "uri(uint256)": {
        "details": "See {IERC1155MetadataURI-uri}. This implementation returns the same URI for *all* token types. It relies on the token type ID substitution mechanism https://eips.ethereum.org/EIPS/eip-1155#metadata[defined in the EIP]. Clients calling this function must replace the `\\{id\\}` substring with the actual token type ID."
      }
    },
    "version": 1
  },
  "userdoc": {
    "kind": "user",
    "methods": {},
    "version": 1
  },
  "storageLayout": {
    "storage": [
      {
        "astId": 396,
        "contract": "contracts/ColorModifiers.sol:ColorModifiers",
        "label": "_balances",
        "offset": 0,
        "slot": "0",
        "type": "t_mapping(t_uint256,t_mapping(t_address,t_uint256))"
      },
      {
        "astId": 402,
        "contract": "contracts/ColorModifiers.sol:ColorModifiers",
        "label": "_operatorApprovals",
        "offset": 0,
        "slot": "1",
        "type": "t_mapping(t_address,t_mapping(t_address,t_bool))"
      },
      {
        "astId": 404,
        "contract": "contracts/ColorModifiers.sol:ColorModifiers",
        "label": "_uri",
        "offset": 0,
        "slot": "2",
        "type": "t_string_storage"
      },
      {
        "astId": 273,
        "contract": "contracts/ColorModifiers.sol:ColorModifiers",
        "label": "_owner",
        "offset": 0,
        "slot": "3",
        "type": "t_address"
      }
    ],
    "types": {
      "t_address": {
        "encoding": "inplace",
        "label": "address",
        "numberOfBytes": "20"
      },
      "t_bool": {
        "encoding": "inplace",
        "label": "bool",
        "numberOfBytes": "1"
      },
      "t_mapping(t_address,t_bool)": {
        "encoding": "mapping",
        "key": "t_address",
        "label": "mapping(address => bool)",
        "numberOfBytes": "32",
        "value": "t_bool"
      },
      "t_mapping(t_address,t_mapping(t_address,t_bool))": {
        "encoding": "mapping",
        "key": "t_address",
        "label": "mapping(address => mapping(address => bool))",
        "numberOfBytes": "32",
        "value": "t_mapping(t_address,t_bool)"
      },
      "t_mapping(t_address,t_uint256)": {
        "encoding": "mapping",
        "key": "t_address",
        "label": "mapping(address => uint256)",
        "numberOfBytes": "32",
        "value": "t_uint256"
      },
      "t_mapping(t_uint256,t_mapping(t_address,t_uint256))": {
        "encoding": "mapping",
        "key": "t_uint256",
        "label": "mapping(uint256 => mapping(address => uint256))",
        "numberOfBytes": "32",
        "value": "t_mapping(t_address,t_uint256)"
      },
      "t_string_storage": {
        "encoding": "bytes",
        "label": "string",
        "numberOfBytes": "32"
      },
      "t_uint256": {
        "encoding": "inplace",
        "label": "uint256",
        "numberOfBytes": "32"
      }
    }
  }
}