{
  "address": "0xe7f1725E7734CE288F8367e1Bb143E90bb3F0512",
  "abi": [
    {
      "inputs": [],
      "stateMutability": "payable",
      "type": "constructor"
    },
    {
      "anonymous": false,
      "inputs": [
        {
          "indexed": true,
          "internalType": "address",
          "name": "owner",
          "type": "address"
        },
        {
          "indexed": true,
          "internalType": "address",
          "name": "approved",
          "type": "address"
        },
        {
          "indexed": true,
          "internalType": "uint256",
          "name": "tokenId",
          "type": "uint256"
        }
      ],
      "name": "Approval",
      "type": "event"
    },
    {
      "anonymous": false,
      "inputs": [
        {
          "indexed": true,
          "internalType": "address",
          "name": "owner",
          "type": "address"
        },
        {
          "indexed": true,
          "internalType": "address",
          "name": "operator",
          "type": "address"
        },
        {
          "indexed": false,
          "internalType": "bool",
          "name": "approved",
          "type": "bool"
        }
      ],
      "name": "ApprovalForAll",
      "type": "event"
    },
    {
      "anonymous": false,
      "inputs": [
        {
          "indexed": true,
          "internalType": "address",
          "name": "previousOwner",
          "type": "address"
        },
        {
          "indexed": true,
          "internalType": "address",
          "name": "newOwner",
          "type": "address"
        }
      ],
      "name": "OwnershipTransferred",
      "type": "event"
    },
    {
      "anonymous": false,
      "inputs": [
        {
          "indexed": true,
          "internalType": "address",
          "name": "from",
          "type": "address"
        },
        {
          "indexed": true,
          "internalType": "address",
          "name": "to",
          "type": "address"
        },
        {
          "indexed": true,
          "internalType": "uint256",
          "name": "tokenId",
          "type": "uint256"
        }
      ],
      "name": "Transfer",
      "type": "event"
    },
    {
      "inputs": [],
      "name": "DARKPAINT",
      "outputs": [
        {
          "internalType": "uint256",
          "name": "",
          "type": "uint256"
        }
      ],
      "stateMutability": "view",
      "type": "function"
    },
    {
      "inputs": [],
      "name": "WHITEPAINT",
      "outputs": [
        {
          "internalType": "uint256",
          "name": "",
          "type": "uint256"
        }
      ],
      "stateMutability": "view",
      "type": "function"
    },
    {
      "inputs": [],
      "name": "_colorTokenList",
      "outputs": [
        {
          "internalType": "uint256[]",
          "name": "",
          "type": "uint256[]"
        }
      ],
      "stateMutability": "view",
      "type": "function"
    },
    {
      "inputs": [
        {
          "internalType": "address",
          "name": "to",
          "type": "address"
        },
        {
          "internalType": "uint256",
          "name": "tokenId",
          "type": "uint256"
        }
      ],
      "name": "approve",
      "outputs": [],
      "stateMutability": "nonpayable",
      "type": "function"
    },
    {
      "inputs": [
        {
          "internalType": "address",
          "name": "owner",
          "type": "address"
        }
      ],
      "name": "balanceOf",
      "outputs": [
        {
          "internalType": "uint256",
          "name": "",
          "type": "uint256"
        }
      ],
      "stateMutability": "view",
      "type": "function"
    },
    {
      "inputs": [
        {
          "internalType": "uint256",
          "name": "",
          "type": "uint256"
        }
      ],
      "name": "colorToToken",
      "outputs": [
        {
          "internalType": "uint256",
          "name": "",
          "type": "uint256"
        }
      ],
      "stateMutability": "view",
      "type": "function"
    },
    {
      "inputs": [
        {
          "internalType": "uint256",
          "name": "",
          "type": "uint256"
        }
      ],
      "name": "colorTokenList",
      "outputs": [
        {
          "internalType": "uint256",
          "name": "",
          "type": "uint256"
        }
      ],
      "stateMutability": "view",
      "type": "function"
    },
    {
      "inputs": [
        {
          "internalType": "uint256",
          "name": "tokenId",
          "type": "uint256"
        }
      ],
      "name": "getApproved",
      "outputs": [
        {
          "internalType": "address",
          "name": "",
          "type": "address"
        }
      ],
      "stateMutability": "view",
      "type": "function"
    },
    {
      "inputs": [
        {
          "internalType": "address",
          "name": "_owner",
          "type": "address"
        }
      ],
      "name": "getColorsByOwner",
      "outputs": [
        {
          "internalType": "uint256[]",
          "name": "",
          "type": "uint256[]"
        }
      ],
      "stateMutability": "view",
      "type": "function"
    },
    {
      "inputs": [
        {
          "internalType": "address",
          "name": "owner",
          "type": "address"
        },
        {
          "internalType": "address",
          "name": "operator",
          "type": "address"
        }
      ],
      "name": "isApprovedForAll",
      "outputs": [
        {
          "internalType": "bool",
          "name": "",
          "type": "bool"
        }
      ],
      "stateMutability": "view",
      "type": "function"
    },
    {
      "inputs": [],
      "name": "isMintEnabled",
      "outputs": [
        {
          "internalType": "bool",
          "name": "",
          "type": "bool"
        }
      ],
      "stateMutability": "view",
      "type": "function"
    },
    {
      "inputs": [],
      "name": "maxSupply",
      "outputs": [
        {
          "internalType": "uint256",
          "name": "",
          "type": "uint256"
        }
      ],
      "stateMutability": "view",
      "type": "function"
    },
    {
      "inputs": [
        {
          "internalType": "uint256",
          "name": "_r",
          "type": "uint256"
        },
        {
          "internalType": "uint256",
          "name": "_g",
          "type": "uint256"
        },
        {
          "internalType": "uint256",
          "name": "_b",
          "type": "uint256"
        }
      ],
      "name": "mint",
      "outputs": [],
      "stateMutability": "payable",
      "type": "function"
    },
    {
      "inputs": [],
      "name": "mintPrice",
      "outputs": [
        {
          "internalType": "uint256",
          "name": "",
          "type": "uint256"
        }
      ],
      "stateMutability": "view",
      "type": "function"
    },
    {
      "inputs": [
        {
          "internalType": "address",
          "name": "",
          "type": "address"
        }
      ],
      "name": "mintedTokens",
      "outputs": [
        {
          "internalType": "uint256",
          "name": "",
          "type": "uint256"
        }
      ],
      "stateMutability": "view",
      "type": "function"
    },
    {
      "inputs": [],
      "name": "name",
      "outputs": [
        {
          "internalType": "string",
          "name": "",
          "type": "string"
        }
      ],
      "stateMutability": "view",
      "type": "function"
    },
    {
      "inputs": [
        {
          "internalType": "address",
          "name": "",
          "type": "address"
        },
        {
          "internalType": "address",
          "name": "",
          "type": "address"
        },
        {
          "internalType": "uint256[]",
          "name": "",
          "type": "uint256[]"
        },
        {
          "internalType": "uint256[]",
          "name": "",
          "type": "uint256[]"
        },
        {
          "internalType": "bytes",
          "name": "",
          "type": "bytes"
        }
      ],
      "name": "onERC1155BatchReceived",
      "outputs": [
        {
          "internalType": "bytes4",
          "name": "",
          "type": "bytes4"
        }
      ],
      "stateMutability": "nonpayable",
      "type": "function"
    },
    {
      "inputs": [
        {
          "internalType": "address",
          "name": "operator",
          "type": "address"
        },
        {
          "internalType": "address",
          "name": "from",
          "type": "address"
        },
        {
          "internalType": "uint256",
          "name": "id",
          "type": "uint256"
        },
        {
          "internalType": "uint256",
          "name": "value",
          "type": "uint256"
        },
        {
          "internalType": "bytes",
          "name": "data",
          "type": "bytes"
        }
      ],
      "name": "onERC1155Received",
      "outputs": [
        {
          "internalType": "bytes4",
          "name": "",
          "type": "bytes4"
        }
      ],
      "stateMutability": "nonpayable",
      "type": "function"
    },
    {
      "inputs": [],
      "name": "owner",
      "outputs": [
        {
          "internalType": "address",
          "name": "",
          "type": "address"
        }
      ],
      "stateMutability": "view",
      "type": "function"
    },
    {
      "inputs": [
        {
          "internalType": "uint256",
          "name": "tokenId",
          "type": "uint256"
        }
      ],
      "name": "ownerOf",
      "outputs": [
        {
          "internalType": "address",
          "name": "",
          "type": "address"
        }
      ],
      "stateMutability": "view",
      "type": "function"
    },
    {
      "inputs": [
        {
          "internalType": "address",
          "name": "",
          "type": "address"
        },
        {
          "internalType": "uint256",
          "name": "",
          "type": "uint256"
        }
      ],
      "name": "ownerToTokens",
      "outputs": [
        {
          "internalType": "uint256",
          "name": "",
          "type": "uint256"
        }
      ],
      "stateMutability": "view",
      "type": "function"
    },
    {
      "inputs": [],
      "name": "renounceOwnership",
      "outputs": [],
      "stateMutability": "nonpayable",
      "type": "function"
    },
    {
      "inputs": [
        {
          "internalType": "address",
          "name": "from",
          "type": "address"
        },
        {
          "internalType": "address",
          "name": "to",
          "type": "address"
        },
        {
          "internalType": "uint256",
          "name": "tokenId",
          "type": "uint256"
        }
      ],
      "name": "safeTransferFrom",
      "outputs": [],
      "stateMutability": "nonpayable",
      "type": "function"
    },
    {
      "inputs": [
        {
          "internalType": "address",
          "name": "from",
          "type": "address"
        },
        {
          "internalType": "address",
          "name": "to",
          "type": "address"
        },
        {
          "internalType": "uint256",
          "name": "tokenId",
          "type": "uint256"
        },
        {
          "internalType": "bytes",
          "name": "_data",
          "type": "bytes"
        }
      ],
      "name": "safeTransferFrom",
      "outputs": [],
      "stateMutability": "nonpayable",
      "type": "function"
    },
    {
      "inputs": [
        {
          "internalType": "address",
          "name": "operator",
          "type": "address"
        },
        {
          "internalType": "bool",
          "name": "approved",
          "type": "bool"
        }
      ],
      "name": "setApprovalForAll",
      "outputs": [],
      "stateMutability": "nonpayable",
      "type": "function"
    },
    {
      "inputs": [
        {
          "internalType": "uint256",
          "name": "maxSupply_",
          "type": "uint256"
        }
      ],
      "name": "setMaxSupply",
      "outputs": [],
      "stateMutability": "nonpayable",
      "type": "function"
    },
    {
      "inputs": [
        {
          "internalType": "bytes4",
          "name": "interfaceId",
          "type": "bytes4"
        }
      ],
      "name": "supportsInterface",
      "outputs": [
        {
          "internalType": "bool",
          "name": "",
          "type": "bool"
        }
      ],
      "stateMutability": "view",
      "type": "function"
    },
    {
      "inputs": [],
      "name": "symbol",
      "outputs": [
        {
          "internalType": "string",
          "name": "",
          "type": "string"
        }
      ],
      "stateMutability": "view",
      "type": "function"
    },
    {
      "inputs": [],
      "name": "toggleIsMintenabled",
      "outputs": [],
      "stateMutability": "nonpayable",
      "type": "function"
    },
    {
      "inputs": [
        {
          "internalType": "uint256",
          "name": "",
          "type": "uint256"
        }
      ],
      "name": "tokenToColor",
      "outputs": [
        {
          "internalType": "uint256",
          "name": "",
          "type": "uint256"
        }
      ],
      "stateMutability": "view",
      "type": "function"
    },
    {
      "inputs": [
        {
          "internalType": "uint256",
          "name": "",
          "type": "uint256"
        }
      ],
      "name": "tokenToOwner",
      "outputs": [
        {
          "internalType": "address payable",
          "name": "",
          "type": "address"
        }
      ],
      "stateMutability": "view",
      "type": "function"
    },
    {
      "inputs": [
        {
          "internalType": "uint256",
          "name": "tokenId",
          "type": "uint256"
        }
      ],
      "name": "tokenURI",
      "outputs": [
        {
          "internalType": "string",
          "name": "",
          "type": "string"
        }
      ],
      "stateMutability": "view",
      "type": "function"
    },
    {
      "inputs": [],
      "name": "totalSupply",
      "outputs": [
        {
          "internalType": "uint256",
          "name": "",
          "type": "uint256"
        }
      ],
      "stateMutability": "view",
      "type": "function"
    },
    {
      "inputs": [
        {
          "internalType": "address",
          "name": "from",
          "type": "address"
        },
        {
          "internalType": "address",
          "name": "to",
          "type": "address"
        },
        {
          "internalType": "uint256",
          "name": "tokenId",
          "type": "uint256"
        }
      ],
      "name": "transferFrom",
      "outputs": [],
      "stateMutability": "nonpayable",
      "type": "function"
    },
    {
      "inputs": [
        {
          "internalType": "address",
          "name": "newOwner",
          "type": "address"
        }
      ],
      "name": "transferOwnership",
      "outputs": [],
      "stateMutability": "nonpayable",
      "type": "function"
    }
  ],
  "transactionHash": "0xa0e6070779ed4fca08971344a4202698b832b394f12bcefb36145545a3bc1946",
  "args": [],
  "solcInputHash": "3bdfaf3aebb3af465250786719384e67",
  "bytecode": "0x6509184e72a000600755600a805460ff19166001179055600860808181526710dbdb1bdb5a5b9d60c21b60a0908152610100604052600460c090815263434f4c4f60e01b60e05291926200005691600091620000ea565b5080516200006c906001906020840190620000ea565b50505062000089620000836200009460201b60201c565b62000098565b60a0600955620001cd565b3390565b600680546001600160a01b038381166001600160a01b0319831681179093556040519116919082907f8be0079c531659141344cd1fd0a4f28419497f9722a3daafe3b4186f6b6457e090600090a35050565b828054620000f89062000190565b90600052602060002090601f0160209004810192826200011c576000855562000167565b82601f106200013757805160ff191683800117855562000167565b8280016001018555821562000167579182015b82811115620001675782518255916020019190600101906200014a565b506200017592915062000179565b5090565b5b808211156200017557600081556001016200017a565b600181811c90821680620001a557607f821691505b60208210811415620001c757634e487b7160e01b600052602260045260246000fd5b50919050565b6122cd80620001dd6000396000f3fe6080604052600436106102045760003560e01c806370a0823111610118578063bc197c81116100a0578063cc0b2c9f1161006f578063cc0b2c9f146105f6578063d5abeb011461062c578063e985e9c514610642578063f23a6e611461068b578063f2fde38b146106ab57600080fd5b8063bc197c811461054f578063beb0d2b714610594578063c4b4fced146105c1578063c87b56dd146105d657600080fd5b80638d0cece2116100e75780638d0cece2146104c75780638da5cb5b146104dc57806395d89b41146104fa578063a22cb4651461050f578063b88d4fde1461052f57600080fd5b806370a0823114610445578063715018a6146104655780637241dfa01461047a57806380b0d8c6146104a757600080fd5b806318160ddd1161019b5780635ded52181161016a5780635ded5218146103a0578063600e7761146103c25780636352211e146103ef5780636817c76c1461040f5780636f8b44b01461042557600080fd5b806318160ddd1461033057806323b872dd14610346578063346de50a1461036657806342842e0e1461038057600080fd5b8063095ea7b3116101d7578063095ea7b3146102ad5780630d828fe0146102cd5780630fcf0e59146102fb5780631683a10b1461031b57600080fd5b806301ffc9a71461020957806302acc94b1461023e57806306fdde0314610253578063081812fc14610275575b600080fd5b34801561021557600080fd5b50610229610224366004611eb2565b6106cb565b60405190151581526020015b60405180910390f35b61025161024c366004611f02565b6106dc565b005b34801561025f57600080fd5b50610268610931565b6040516102359190612009565b34801561028157600080fd5b50610295610290366004611eea565b6109c3565b6040516001600160a01b039091168152602001610235565b3480156102b957600080fd5b506102516102c8366004611e89565b610a58565b3480156102d957600080fd5b506102ed6102e8366004611e89565b610b6e565b604051908152602001610235565b34801561030757600080fd5b506102ed610316366004611eea565b610b9f565b34801561032757600080fd5b50610251610bc0565b34801561033c57600080fd5b506102ed60085481565b34801561035257600080fd5b50610251610361366004611d0d565b610bfe565b34801561037257600080fd5b50600a546102299060ff1681565b34801561038c57600080fd5b5061025161039b366004611d0d565b610c2f565b3480156103ac57600080fd5b506103b5610c4a565b6040516102359190611fc5565b3480156103ce57600080fd5b506102ed6103dd366004611eea565b600c6020526000908152604090205481565b3480156103fb57600080fd5b5061029561040a366004611eea565b610ca1565b34801561041b57600080fd5b506102ed60075481565b34801561043157600080fd5b50610251610440366004611eea565b610d18565b34801561045157600080fd5b506102ed610460366004611c1b565b610d47565b34801561047157600080fd5b50610251610dce565b34801561048657600080fd5b506102ed610495366004611c1b565b600b6020526000908152604090205481565b3480156104b357600080fd5b506103b56104c2366004611c1b565b610e04565b3480156104d357600080fd5b506102ed600081565b3480156104e857600080fd5b506006546001600160a01b0316610295565b34801561050657600080fd5b50610268610e70565b34801561051b57600080fd5b5061025161052a366004611e4f565b610e7f565b34801561053b57600080fd5b5061025161054a366004611d48565b610e8e565b34801561055b57600080fd5b5061057b61056a366004611c67565b63bc197c8160e01b95945050505050565b6040516001600160e01b03199091168152602001610235565b3480156105a057600080fd5b506102ed6105af366004611eea565b600d6020526000908152604090205481565b3480156105cd57600080fd5b506102ed600181565b3480156105e257600080fd5b506102686105f1366004611eea565b610ec6565b34801561060257600080fd5b50610295610611366004611eea565b600f602052600090815260409020546001600160a01b031681565b34801561063857600080fd5b506102ed60095481565b34801561064e57600080fd5b5061022961065d366004611c35565b6001600160a01b03918216600090815260056020908152604080832093909416825291909152205460ff1690565b34801561069757600080fd5b5061057b6106a6366004611dae565b610fae565b3480156106b757600080fd5b506102516106c6366004611c1b565b61114b565b60006106d6826111e6565b92915050565b600a5460ff166107295760405162461bcd60e51b81526020600482015260136024820152721b5a5b9d1a5b99c81b9bdd08195b98589b1959606a1b60448201526064015b60405180910390fd5b336000908152600b60205260409020546005116107815760405162461bcd60e51b8152602060048201526016602482015275195e18d959591cc81b585e081c195c881dd85b1b195d60521b6044820152606401610720565b60075434146107c05760405162461bcd60e51b815260206004820152600b60248201526a77726f6e672076616c756560a81b6044820152606401610720565b600854600954116107fe5760405162461bcd60e51b81526020600482015260086024820152671cdbdb19081bdd5d60c21b6044820152606401610720565b336000908152600b6020526040812080549161081983612210565b90915550506008805490600061082e83612210565b9091555050600854610840338261120b565b600061084d858585611225565b905080600c600061085f600186612192565b815260208101919091526040016000205561087b600183612192565b6000828152600d6020908152604080832093909355338252600e9052206108a3600184612192565b815460018181018455600093845260208420909101919091553391600f916108cb9086612192565b81526020810191909152604001600090812080546001600160a01b0319166001600160a01b0393909316929092179091556010805460018101825591527f1b6847dc741a1b0cd08d278845f9d819d87b734759afb55fe2de5cb82a9ae672015550505050565b606060008054610940906121d5565b80601f016020809104026020016040519081016040528092919081815260200182805461096c906121d5565b80156109b95780601f1061098e576101008083540402835291602001916109b9565b820191906000526020600020905b81548152906001019060200180831161099c57829003601f168201915b5050505050905090565b6000818152600260205260408120546001600160a01b0316610a3c5760405162461bcd60e51b815260206004820152602c60248201527f4552433732313a20617070726f76656420717565727920666f72206e6f6e657860448201526b34b9ba32b73a103a37b5b2b760a11b6064820152608401610720565b506000908152600460205260409020546001600160a01b031690565b6000610a6382610ca1565b9050806001600160a01b0316836001600160a01b03161415610ad15760405162461bcd60e51b815260206004820152602160248201527f4552433732313a20617070726f76616c20746f2063757272656e74206f776e656044820152603960f91b6064820152608401610720565b336001600160a01b0382161480610aed5750610aed813361065d565b610b5f5760405162461bcd60e51b815260206004820152603860248201527f4552433732313a20617070726f76652063616c6c6572206973206e6f74206f7760448201527f6e6572206e6f7220617070726f76656420666f7220616c6c00000000000000006064820152608401610720565b610b69838361125f565b505050565b600e6020528160005260406000208181548110610b8a57600080fd5b90600052602060002001600091509150505481565b60108181548110610baf57600080fd5b600091825260209091200154905081565b6006546001600160a01b03163314610bea5760405162461bcd60e51b815260040161072090612090565b600a805460ff19811660ff90911615179055565b610c0833826112cd565b610c245760405162461bcd60e51b8152600401610720906120c5565b610b698383836113c4565b610b6983838360405180602001604052806000815250610e8e565b606060108054806020026020016040519081016040528092919081815260200182805480156109b957602002820191906000526020600020905b815481526020019060010190808311610c84575050505050905090565b6000818152600260205260408120546001600160a01b0316806106d65760405162461bcd60e51b815260206004820152602960248201527f4552433732313a206f776e657220717565727920666f72206e6f6e657869737460448201526832b73a103a37b5b2b760b91b6064820152608401610720565b6006546001600160a01b03163314610d425760405162461bcd60e51b815260040161072090612090565b600955565b60006001600160a01b038216610db25760405162461bcd60e51b815260206004820152602a60248201527f4552433732313a2062616c616e636520717565727920666f7220746865207a65604482015269726f206164647265737360b01b6064820152608401610720565b506001600160a01b031660009081526003602052604090205490565b6006546001600160a01b03163314610df85760405162461bcd60e51b815260040161072090612090565b610e026000611564565b565b6001600160a01b0381166000908152600e6020908152604091829020805483518184028101840190945280845260609392830182828015610e6457602002820191906000526020600020905b815481526020019060010190808311610e50575b50505050509050919050565b606060018054610940906121d5565b610e8a3383836115b6565b5050565b610e9833836112cd565b610eb45760405162461bcd60e51b8152600401610720906120c5565b610ec084848484611685565b50505050565b6000818152600260205260409020546060906001600160a01b0316610f455760405162461bcd60e51b815260206004820152602f60248201527f4552433732314d657461646174613a2055524920717565727920666f72206e6f60448201526e3732bc34b9ba32b73a103a37b5b2b760891b6064820152608401610720565b6000610f5c60408051602081019091526000815290565b90506000815111610f7c5760405180602001604052806000815250610fa7565b80610f86846116b8565b604051602001610f97929190611f59565b6040516020818303038152906040525b9392505050565b600080610ff084848080601f0160208091040260200160405190810160405280939291908181526020018383808284376000920191909152506117d292505050565b60008181526011602090815260408083208a845290915281208054929350879290919061101e908490612147565b909155505060408051808201909152600a81526918dbdb1bdc939195125960b21b602082015261104e90826117d9565b611077604051806040016040528060078152602001661d1bdad95b925160ca1b815250876117d9565b856110b7576000818152600c6020526040902054600390611099906001612173565b6110a3919061215f565b6000828152600c60205260409020556110e1565b6000818152600c60205260409020546110d1906003612173565b6000828152600c60205260409020555b6000818152600c6020526040902054601080548390811061111257634e487b7160e01b600052603260045260246000fd5b600091825260209091200155507ff23a6e612e1ff4830e658fe43f4e3cb4a5f8170bd5d9e69fb5d7a7fa9e4fdf97979650505050505050565b6006546001600160a01b031633146111755760405162461bcd60e51b815260040161072090612090565b6001600160a01b0381166111da5760405162461bcd60e51b815260206004820152602660248201527f4f776e61626c653a206e6577206f776e657220697320746865207a65726f206160448201526564647265737360d01b6064820152608401610720565b6111e381611564565b50565b60006001600160e01b03198216630271189760e51b14806106d657506106d68261181e565b610e8a82826040518060200160405280600081525061186e565b6000808261123586610100612173565b6112428762010000612173565b61124c9190612147565b6112569190612147565b95945050505050565b600081815260046020526040902080546001600160a01b0319166001600160a01b038416908117909155819061129482610ca1565b6001600160a01b03167f8c5be1e5ebec7d5bd14f71427d1e84f3dd0314c0f7b2291e5b200ac8c7c3b92560405160405180910390a45050565b6000818152600260205260408120546001600160a01b03166113465760405162461bcd60e51b815260206004820152602c60248201527f4552433732313a206f70657261746f7220717565727920666f72206e6f6e657860448201526b34b9ba32b73a103a37b5b2b760a11b6064820152608401610720565b600061135183610ca1565b9050806001600160a01b0316846001600160a01b0316148061138c5750836001600160a01b0316611381846109c3565b6001600160a01b0316145b806113bc57506001600160a01b0380821660009081526005602090815260408083209388168352929052205460ff165b949350505050565b826001600160a01b03166113d782610ca1565b6001600160a01b03161461143f5760405162461bcd60e51b815260206004820152602960248201527f4552433732313a207472616e73666572206f6620746f6b656e2074686174206960448201526839903737ba1037bbb760b91b6064820152608401610720565b6001600160a01b0382166114a15760405162461bcd60e51b8152602060048201526024808201527f4552433732313a207472616e7366657220746f20746865207a65726f206164646044820152637265737360e01b6064820152608401610720565b6114ac60008261125f565b6001600160a01b03831660009081526003602052604081208054600192906114d5908490612192565b90915550506001600160a01b0382166000908152600360205260408120805460019290611503908490612147565b909155505060008181526002602052604080822080546001600160a01b0319166001600160a01b0386811691821790925591518493918716917fddf252ad1be2c89b69c2b068fc378daa952ba7f163c4a11628f55a4df523b3ef91a4505050565b600680546001600160a01b038381166001600160a01b0319831681179093556040519116919082907f8be0079c531659141344cd1fd0a4f28419497f9722a3daafe3b4186f6b6457e090600090a35050565b816001600160a01b0316836001600160a01b031614156116185760405162461bcd60e51b815260206004820152601960248201527f4552433732313a20617070726f766520746f2063616c6c6572000000000000006044820152606401610720565b6001600160a01b03838116600081815260056020908152604080832094871680845294825291829020805460ff191686151590811790915591519182527f17307eab39ab6107e8899845ad3d59bd9653f200f220920489ca2b5937696c31910160405180910390a3505050565b6116908484846113c4565b61169c848484846118a1565b610ec05760405162461bcd60e51b81526004016107209061203e565b6060816116dc5750506040805180820190915260018152600360fc1b602082015290565b8160005b811561170657806116f081612210565b91506116ff9050600a8361215f565b91506116e0565b60008167ffffffffffffffff81111561172f57634e487b7160e01b600052604160045260246000fd5b6040519080825280601f01601f191660200182016040528015611759576020820181803683370190505b5090505b84156113bc5761176e600183612192565b915061177b600a8661222b565b611786906030612147565b60f81b8183815181106117a957634e487b7160e01b600052603260045260246000fd5b60200101906001600160f81b031916908160001a9053506117cb600a8661215f565b945061175d565b6020015190565b610e8a82826040516024016117ef92919061201c565b60408051601f198184030181529190526020810180516001600160e01b03166309710a9d60e41b1790526119ae565b60006001600160e01b031982166380ac58cd60e01b148061184f57506001600160e01b03198216635b5e139f60e01b145b806106d657506301ffc9a760e01b6001600160e01b03198316146106d6565b61187883836119cf565b61188560008484846118a1565b610b695760405162461bcd60e51b81526004016107209061203e565b60006001600160a01b0384163b156119a357604051630a85bd0160e11b81526001600160a01b0385169063150b7a02906118e5903390899088908890600401611f88565b602060405180830381600087803b1580156118ff57600080fd5b505af192505050801561192f575060408051601f3d908101601f1916820190925261192c91810190611ece565b60015b611989573d80801561195d576040519150601f19603f3d011682016040523d82523d6000602084013e611962565b606091505b5080516119815760405162461bcd60e51b81526004016107209061203e565b805181602001fd5b6001600160e01b031916630a85bd0160e11b1490506113bc565b506001949350505050565b80516a636f6e736f6c652e6c6f67602083016000808483855afa5050505050565b6001600160a01b038216611a255760405162461bcd60e51b815260206004820181905260248201527f4552433732313a206d696e7420746f20746865207a65726f20616464726573736044820152606401610720565b6000818152600260205260409020546001600160a01b031615611a8a5760405162461bcd60e51b815260206004820152601c60248201527f4552433732313a20746f6b656e20616c7265616479206d696e746564000000006044820152606401610720565b6001600160a01b0382166000908152600360205260408120805460019290611ab3908490612147565b909155505060008181526002602052604080822080546001600160a01b0319166001600160a01b03861690811790915590518392907fddf252ad1be2c89b69c2b068fc378daa952ba7f163c4a11628f55a4df523b3ef908290a45050565b80356001600160a01b0381168114611b2857600080fd5b919050565b600082601f830112611b3d578081fd5b8135602067ffffffffffffffff821115611b5957611b5961226b565b8160051b611b68828201612116565b838152828101908684018388018501891015611b82578687fd5b8693505b85841015611ba4578035835260019390930192918401918401611b86565b50979650505050505050565b600082601f830112611bc0578081fd5b813567ffffffffffffffff811115611bda57611bda61226b565b611bed601f8201601f1916602001612116565b818152846020838601011115611c01578283fd5b816020850160208301379081016020019190915292915050565b600060208284031215611c2c578081fd5b610fa782611b11565b60008060408385031215611c47578081fd5b611c5083611b11565b9150611c5e60208401611b11565b90509250929050565b600080600080600060a08688031215611c7e578081fd5b611c8786611b11565b9450611c9560208701611b11565b9350604086013567ffffffffffffffff80821115611cb1578283fd5b611cbd89838a01611b2d565b94506060880135915080821115611cd2578283fd5b611cde89838a01611b2d565b93506080880135915080821115611cf3578283fd5b50611d0088828901611bb0565b9150509295509295909350565b600080600060608486031215611d21578283fd5b611d2a84611b11565b9250611d3860208501611b11565b9150604084013590509250925092565b60008060008060808587031215611d5d578384fd5b611d6685611b11565b9350611d7460208601611b11565b925060408501359150606085013567ffffffffffffffff811115611d96578182fd5b611da287828801611bb0565b91505092959194509250565b60008060008060008060a08789031215611dc6578081fd5b611dcf87611b11565b9550611ddd60208801611b11565b94506040870135935060608701359250608087013567ffffffffffffffff80821115611e07578283fd5b818901915089601f830112611e1a578283fd5b813581811115611e28578384fd5b8a6020828501011115611e39578384fd5b6020830194508093505050509295509295509295565b60008060408385031215611e61578182fd5b611e6a83611b11565b915060208301358015158114611e7e578182fd5b809150509250929050565b60008060408385031215611e9b578182fd5b611ea483611b11565b946020939093013593505050565b600060208284031215611ec3578081fd5b8135610fa781612281565b600060208284031215611edf578081fd5b8151610fa781612281565b600060208284031215611efb578081fd5b5035919050565b600080600060608486031215611f16578081fd5b505081359360208301359350604090920135919050565b60008151808452611f458160208601602086016121a9565b601f01601f19169290920160200192915050565b60008351611f6b8184602088016121a9565b835190830190611f7f8183602088016121a9565b01949350505050565b6001600160a01b0385811682528416602082015260408101839052608060608201819052600090611fbb90830184611f2d565b9695505050505050565b6020808252825182820181905260009190848201906040850190845b81811015611ffd57835183529284019291840191600101611fe1565b50909695505050505050565b602081526000610fa76020830184611f2d565b60408152600061202f6040830185611f2d565b90508260208301529392505050565b60208082526032908201527f4552433732313a207472616e7366657220746f206e6f6e20455243373231526560408201527131b2b4bb32b91034b6b83632b6b2b73a32b960711b606082015260800190565b6020808252818101527f4f776e61626c653a2063616c6c6572206973206e6f7420746865206f776e6572604082015260600190565b60208082526031908201527f4552433732313a207472616e736665722063616c6c6572206973206e6f74206f6040820152701ddb995c881b9bdc88185c1c1c9bdd9959607a1b606082015260800190565b604051601f8201601f1916810167ffffffffffffffff8111828210171561213f5761213f61226b565b604052919050565b6000821982111561215a5761215a61223f565b500190565b60008261216e5761216e612255565b500490565b600081600019048311821515161561218d5761218d61223f565b500290565b6000828210156121a4576121a461223f565b500390565b60005b838110156121c45781810151838201526020016121ac565b83811115610ec05750506000910152565b600181811c908216806121e957607f821691505b6020821081141561220a57634e487b7160e01b600052602260045260246000fd5b50919050565b60006000198214156122245761222461223f565b5060010190565b60008261223a5761223a612255565b500690565b634e487b7160e01b600052601160045260246000fd5b634e487b7160e01b600052601260045260246000fd5b634e487b7160e01b600052604160045260246000fd5b6001600160e01b0319811681146111e357600080fdfea264697066735822122085da74072983bc77dc88d67fab6cfcd302c827918c6e096a173aa5de805f49de64736f6c63430008040033",
  "devdoc": {
    "kind": "dev",
    "methods": {
      "approve(address,uint256)": {
        "details": "See {IERC721-approve}."
      },
      "balanceOf(address)": {
        "details": "See {IERC721-balanceOf}."
      },
      "getApproved(uint256)": {
        "details": "See {IERC721-getApproved}."
      },
      "isApprovedForAll(address,address)": {
        "details": "See {IERC721-isApprovedForAll}."
      },
      "name()": {
        "details": "See {IERC721Metadata-name}."
      },
      "owner()": {
        "details": "Returns the address of the current owner."
      },
      "ownerOf(uint256)": {
        "details": "See {IERC721-ownerOf}."
      },
      "renounceOwnership()": {
        "details": "Leaves the contract without owner. It will not be possible to call `onlyOwner` functions anymore. Can only be called by the current owner. NOTE: Renouncing ownership will leave the contract without an owner, thereby removing any functionality that is only available to the owner."
      },
      "safeTransferFrom(address,address,uint256)": {
        "details": "See {IERC721-safeTransferFrom}."
      },
      "safeTransferFrom(address,address,uint256,bytes)": {
        "details": "See {IERC721-safeTransferFrom}."
      },
      "setApprovalForAll(address,bool)": {
        "details": "See {IERC721-setApprovalForAll}."
      },
      "symbol()": {
        "details": "See {IERC721Metadata-symbol}."
      },
      "tokenURI(uint256)": {
        "details": "See {IERC721Metadata-tokenURI}."
      },
      "transferFrom(address,address,uint256)": {
        "details": "See {IERC721-transferFrom}."
      },
      "transferOwnership(address)": {
        "details": "Transfers ownership of the contract to a new account (`newOwner`). Can only be called by the current owner."
      }
    },
    "version": 1
  },
  "userdoc": {
    "kind": "user",
    "methods": {},
    "version": 1
  },
  "storageLayout": {
    "storage": [
      {
        "astId": 1755,
        "contract": "contracts/ColorsNFT.sol:ColorsNFT",
        "label": "_name",
        "offset": 0,
        "slot": "0",
        "type": "t_string_storage"
      },
      {
        "astId": 1757,
        "contract": "contracts/ColorsNFT.sol:ColorsNFT",
        "label": "_symbol",
        "offset": 0,
        "slot": "1",
        "type": "t_string_storage"
      },
      {
        "astId": 1761,
        "contract": "contracts/ColorsNFT.sol:ColorsNFT",
        "label": "_owners",
        "offset": 0,
        "slot": "2",
        "type": "t_mapping(t_uint256,t_address)"
      },
      {
        "astId": 1765,
        "contract": "contracts/ColorsNFT.sol:ColorsNFT",
        "label": "_balances",
        "offset": 0,
        "slot": "3",
        "type": "t_mapping(t_address,t_uint256)"
      },
      {
        "astId": 1769,
        "contract": "contracts/ColorsNFT.sol:ColorsNFT",
        "label": "_tokenApprovals",
        "offset": 0,
        "slot": "4",
        "type": "t_mapping(t_uint256,t_address)"
      },
      {
        "astId": 1775,
        "contract": "contracts/ColorsNFT.sol:ColorsNFT",
        "label": "_operatorApprovals",
        "offset": 0,
        "slot": "5",
        "type": "t_mapping(t_address,t_mapping(t_address,t_bool))"
      },
      {
        "astId": 273,
        "contract": "contracts/ColorsNFT.sol:ColorsNFT",
        "label": "_owner",
        "offset": 0,
        "slot": "6",
        "type": "t_address"
      },
      {
        "astId": 3475,
        "contract": "contracts/ColorsNFT.sol:ColorsNFT",
        "label": "mintPrice",
        "offset": 0,
        "slot": "7",
        "type": "t_uint256"
      },
      {
        "astId": 3477,
        "contract": "contracts/ColorsNFT.sol:ColorsNFT",
        "label": "totalSupply",
        "offset": 0,
        "slot": "8",
        "type": "t_uint256"
      },
      {
        "astId": 3479,
        "contract": "contracts/ColorsNFT.sol:ColorsNFT",
        "label": "maxSupply",
        "offset": 0,
        "slot": "9",
        "type": "t_uint256"
      },
      {
        "astId": 3482,
        "contract": "contracts/ColorsNFT.sol:ColorsNFT",
        "label": "isMintEnabled",
        "offset": 0,
        "slot": "10",
        "type": "t_bool"
      },
      {
        "astId": 3486,
        "contract": "contracts/ColorsNFT.sol:ColorsNFT",
        "label": "mintedTokens",
        "offset": 0,
        "slot": "11",
        "type": "t_mapping(t_address,t_uint256)"
      },
      {
        "astId": 3490,
        "contract": "contracts/ColorsNFT.sol:ColorsNFT",
        "label": "tokenToColor",
        "offset": 0,
        "slot": "12",
        "type": "t_mapping(t_uint256,t_uint256)"
      },
      {
        "astId": 3494,
        "contract": "contracts/ColorsNFT.sol:ColorsNFT",
        "label": "colorToToken",
        "offset": 0,
        "slot": "13",
        "type": "t_mapping(t_uint256,t_uint256)"
      },
      {
        "astId": 3499,
        "contract": "contracts/ColorsNFT.sol:ColorsNFT",
        "label": "ownerToTokens",
        "offset": 0,
        "slot": "14",
        "type": "t_mapping(t_address,t_array(t_uint256)dyn_storage)"
      },
      {
        "astId": 3503,
        "contract": "contracts/ColorsNFT.sol:ColorsNFT",
        "label": "tokenToOwner",
        "offset": 0,
        "slot": "15",
        "type": "t_mapping(t_uint256,t_address_payable)"
      },
      {
        "astId": 3506,
        "contract": "contracts/ColorsNFT.sol:ColorsNFT",
        "label": "colorTokenList",
        "offset": 0,
        "slot": "16",
        "type": "t_array(t_uint256)dyn_storage"
      },
      {
        "astId": 3512,
        "contract": "contracts/ColorsNFT.sol:ColorsNFT",
        "label": "supplyAmountsForColor",
        "offset": 0,
        "slot": "17",
        "type": "t_mapping(t_uint256,t_mapping(t_uint256,t_uint256))"
      }
    ],
    "types": {
      "t_address": {
        "encoding": "inplace",
        "label": "address",
        "numberOfBytes": "20"
      },
      "t_address_payable": {
        "encoding": "inplace",
        "label": "address payable",
        "numberOfBytes": "20"
      },
      "t_array(t_uint256)dyn_storage": {
        "base": "t_uint256",
        "encoding": "dynamic_array",
        "label": "uint256[]",
        "numberOfBytes": "32"
      },
      "t_bool": {
        "encoding": "inplace",
        "label": "bool",
        "numberOfBytes": "1"
      },
      "t_mapping(t_address,t_array(t_uint256)dyn_storage)": {
        "encoding": "mapping",
        "key": "t_address",
        "label": "mapping(address => uint256[])",
        "numberOfBytes": "32",
        "value": "t_array(t_uint256)dyn_storage"
      },
      "t_mapping(t_address,t_bool)": {
        "encoding": "mapping",
        "key": "t_address",
        "label": "mapping(address => bool)",
        "numberOfBytes": "32",
        "value": "t_bool"
      },
      "t_mapping(t_address,t_mapping(t_address,t_bool))": {
        "encoding": "mapping",
        "key": "t_address",
        "label": "mapping(address => mapping(address => bool))",
        "numberOfBytes": "32",
        "value": "t_mapping(t_address,t_bool)"
      },
      "t_mapping(t_address,t_uint256)": {
        "encoding": "mapping",
        "key": "t_address",
        "label": "mapping(address => uint256)",
        "numberOfBytes": "32",
        "value": "t_uint256"
      },
      "t_mapping(t_uint256,t_address)": {
        "encoding": "mapping",
        "key": "t_uint256",
        "label": "mapping(uint256 => address)",
        "numberOfBytes": "32",
        "value": "t_address"
      },
      "t_mapping(t_uint256,t_address_payable)": {
        "encoding": "mapping",
        "key": "t_uint256",
        "label": "mapping(uint256 => address payable)",
        "numberOfBytes": "32",
        "value": "t_address_payable"
      },
      "t_mapping(t_uint256,t_mapping(t_uint256,t_uint256))": {
        "encoding": "mapping",
        "key": "t_uint256",
        "label": "mapping(uint256 => mapping(uint256 => uint256))",
        "numberOfBytes": "32",
        "value": "t_mapping(t_uint256,t_uint256)"
      },
      "t_mapping(t_uint256,t_uint256)": {
        "encoding": "mapping",
        "key": "t_uint256",
        "label": "mapping(uint256 => uint256)",
        "numberOfBytes": "32",
        "value": "t_uint256"
      },
      "t_string_storage": {
        "encoding": "bytes",
        "label": "string",
        "numberOfBytes": "32"
      },
      "t_uint256": {
        "encoding": "inplace",
        "label": "uint256",
        "numberOfBytes": "32"
      }
    }
  }
}