{
  "_format": "hh-sol-artifact-1",
  "contractName": "ColorsNFT",
  "sourceName": "contracts/ColorsNFT.sol",
  "abi": [
    {
      "inputs": [
        {
          "internalType": "address",
          "name": "_colorModifiersAddress",
          "type": "address"
        },
        {
          "internalType": "address",
          "name": "_jackpotAddress",
          "type": "address"
        }
      ],
      "stateMutability": "payable",
      "type": "constructor"
    },
    {
      "anonymous": false,
      "inputs": [
        {
          "indexed": true,
          "internalType": "address",
          "name": "owner",
          "type": "address"
        },
        {
          "indexed": true,
          "internalType": "address",
          "name": "approved",
          "type": "address"
        },
        {
          "indexed": true,
          "internalType": "uint256",
          "name": "tokenId",
          "type": "uint256"
        }
      ],
      "name": "Approval",
      "type": "event"
    },
    {
      "anonymous": false,
      "inputs": [
        {
          "indexed": true,
          "internalType": "address",
          "name": "owner",
          "type": "address"
        },
        {
          "indexed": true,
          "internalType": "address",
          "name": "operator",
          "type": "address"
        },
        {
          "indexed": false,
          "internalType": "bool",
          "name": "approved",
          "type": "bool"
        }
      ],
      "name": "ApprovalForAll",
      "type": "event"
    },
    {
      "anonymous": false,
      "inputs": [
        {
          "indexed": true,
          "internalType": "address",
          "name": "previousOwner",
          "type": "address"
        },
        {
          "indexed": true,
          "internalType": "address",
          "name": "newOwner",
          "type": "address"
        }
      ],
      "name": "OwnershipTransferred",
      "type": "event"
    },
    {
      "anonymous": false,
      "inputs": [
        {
          "indexed": true,
          "internalType": "address",
          "name": "from",
          "type": "address"
        },
        {
          "indexed": true,
          "internalType": "address",
          "name": "to",
          "type": "address"
        },
        {
          "indexed": true,
          "internalType": "uint256",
          "name": "tokenId",
          "type": "uint256"
        }
      ],
      "name": "Transfer",
      "type": "event"
    },
    {
      "inputs": [],
      "name": "DARKPAINT",
      "outputs": [
        {
          "internalType": "uint256",
          "name": "",
          "type": "uint256"
        }
      ],
      "stateMutability": "view",
      "type": "function"
    },
    {
      "inputs": [],
      "name": "WHITEPAINT",
      "outputs": [
        {
          "internalType": "uint256",
          "name": "",
          "type": "uint256"
        }
      ],
      "stateMutability": "view",
      "type": "function"
    },
    {
      "inputs": [],
      "name": "_colorTokenList",
      "outputs": [
        {
          "internalType": "uint256[]",
          "name": "",
          "type": "uint256[]"
        }
      ],
      "stateMutability": "view",
      "type": "function"
    },
    {
      "inputs": [
        {
          "internalType": "uint256",
          "name": "valueOne",
          "type": "uint256"
        },
        {
          "internalType": "uint256",
          "name": "valueTwo",
          "type": "uint256"
        }
      ],
      "name": "absDiff",
      "outputs": [
        {
          "internalType": "uint256",
          "name": "absValue",
          "type": "uint256"
        }
      ],
      "stateMutability": "pure",
      "type": "function"
    },
    {
      "inputs": [
        {
          "internalType": "address",
          "name": "to",
          "type": "address"
        },
        {
          "internalType": "uint256",
          "name": "tokenId",
          "type": "uint256"
        }
      ],
      "name": "approve",
      "outputs": [],
      "stateMutability": "nonpayable",
      "type": "function"
    },
    {
      "inputs": [
        {
          "internalType": "address",
          "name": "owner",
          "type": "address"
        }
      ],
      "name": "balanceOf",
      "outputs": [
        {
          "internalType": "uint256",
          "name": "",
          "type": "uint256"
        }
      ],
      "stateMutability": "view",
      "type": "function"
    },
    {
      "inputs": [
        {
          "internalType": "uint256",
          "name": "colorOne",
          "type": "uint256"
        },
        {
          "internalType": "uint256",
          "name": "colorTwo",
          "type": "uint256"
        }
      ],
      "name": "colorDistance",
      "outputs": [
        {
          "internalType": "uint256",
          "name": "distance",
          "type": "uint256"
        }
      ],
      "stateMutability": "pure",
      "type": "function"
    },
    {
      "inputs": [
        {
          "internalType": "uint256",
          "name": "",
          "type": "uint256"
        }
      ],
      "name": "colorTokenList",
      "outputs": [
        {
          "internalType": "uint256",
          "name": "",
          "type": "uint256"
        }
      ],
      "stateMutability": "view",
      "type": "function"
    },
    {
      "inputs": [
        {
          "internalType": "uint256",
          "name": "tokenId",
          "type": "uint256"
        }
      ],
      "name": "getApproved",
      "outputs": [
        {
          "internalType": "address",
          "name": "",
          "type": "address"
        }
      ],
      "stateMutability": "view",
      "type": "function"
    },
    {
      "inputs": [
        {
          "internalType": "address",
          "name": "_owner",
          "type": "address"
        }
      ],
      "name": "getColorsByOwner",
      "outputs": [
        {
          "internalType": "uint256[]",
          "name": "",
          "type": "uint256[]"
        }
      ],
      "stateMutability": "view",
      "type": "function"
    },
    {
      "inputs": [
        {
          "internalType": "uint256",
          "name": "color",
          "type": "uint256"
        }
      ],
      "name": "intToRgb",
      "outputs": [
        {
          "internalType": "uint256",
          "name": "r",
          "type": "uint256"
        },
        {
          "internalType": "uint256",
          "name": "g",
          "type": "uint256"
        },
        {
          "internalType": "uint256",
          "name": "b",
          "type": "uint256"
        }
      ],
      "stateMutability": "pure",
      "type": "function"
    },
    {
      "inputs": [
        {
          "internalType": "address",
          "name": "owner",
          "type": "address"
        },
        {
          "internalType": "address",
          "name": "operator",
          "type": "address"
        }
      ],
      "name": "isApprovedForAll",
      "outputs": [
        {
          "internalType": "bool",
          "name": "",
          "type": "bool"
        }
      ],
      "stateMutability": "view",
      "type": "function"
    },
    {
      "inputs": [],
      "name": "isMintEnabled",
      "outputs": [
        {
          "internalType": "bool",
          "name": "",
          "type": "bool"
        }
      ],
      "stateMutability": "view",
      "type": "function"
    },
    {
      "inputs": [],
      "name": "maxSupply",
      "outputs": [
        {
          "internalType": "uint256",
          "name": "",
          "type": "uint256"
        }
      ],
      "stateMutability": "view",
      "type": "function"
    },
    {
      "inputs": [],
      "name": "mint",
      "outputs": [],
      "stateMutability": "payable",
      "type": "function"
    },
    {
      "inputs": [
        {
          "internalType": "uint256",
          "name": "rgbInt",
          "type": "uint256"
        }
      ],
      "name": "mintInternal",
      "outputs": [],
      "stateMutability": "nonpayable",
      "type": "function"
    },
    {
      "inputs": [],
      "name": "mintPrice",
      "outputs": [
        {
          "internalType": "uint256",
          "name": "",
          "type": "uint256"
        }
      ],
      "stateMutability": "view",
      "type": "function"
    },
    {
      "inputs": [
        {
          "internalType": "address",
          "name": "",
          "type": "address"
        }
      ],
      "name": "mintedTokens",
      "outputs": [
        {
          "internalType": "uint256",
          "name": "",
          "type": "uint256"
        }
      ],
      "stateMutability": "view",
      "type": "function"
    },
    {
      "inputs": [],
      "name": "name",
      "outputs": [
        {
          "internalType": "string",
          "name": "",
          "type": "string"
        }
      ],
      "stateMutability": "view",
      "type": "function"
    },
    {
      "inputs": [
        {
          "internalType": "address",
          "name": "",
          "type": "address"
        },
        {
          "internalType": "address",
          "name": "",
          "type": "address"
        },
        {
          "internalType": "uint256[]",
          "name": "",
          "type": "uint256[]"
        },
        {
          "internalType": "uint256[]",
          "name": "",
          "type": "uint256[]"
        },
        {
          "internalType": "bytes",
          "name": "",
          "type": "bytes"
        }
      ],
      "name": "onERC1155BatchReceived",
      "outputs": [
        {
          "internalType": "bytes4",
          "name": "",
          "type": "bytes4"
        }
      ],
      "stateMutability": "nonpayable",
      "type": "function"
    },
    {
      "inputs": [
        {
          "internalType": "address",
          "name": "operator",
          "type": "address"
        },
        {
          "internalType": "address",
          "name": "from",
          "type": "address"
        },
        {
          "internalType": "uint256",
          "name": "id",
          "type": "uint256"
        },
        {
          "internalType": "uint256",
          "name": "value",
          "type": "uint256"
        },
        {
          "internalType": "bytes",
          "name": "data",
          "type": "bytes"
        }
      ],
      "name": "onERC1155Received",
      "outputs": [
        {
          "internalType": "bytes4",
          "name": "",
          "type": "bytes4"
        }
      ],
      "stateMutability": "nonpayable",
      "type": "function"
    },
    {
      "inputs": [],
      "name": "owner",
      "outputs": [
        {
          "internalType": "address",
          "name": "",
          "type": "address"
        }
      ],
      "stateMutability": "view",
      "type": "function"
    },
    {
      "inputs": [
        {
          "internalType": "uint256",
          "name": "tokenId",
          "type": "uint256"
        }
      ],
      "name": "ownerOf",
      "outputs": [
        {
          "internalType": "address",
          "name": "",
          "type": "address"
        }
      ],
      "stateMutability": "view",
      "type": "function"
    },
    {
      "inputs": [
        {
          "internalType": "address",
          "name": "",
          "type": "address"
        },
        {
          "internalType": "uint256",
          "name": "",
          "type": "uint256"
        }
      ],
      "name": "ownerToTokens",
      "outputs": [
        {
          "internalType": "uint256",
          "name": "",
          "type": "uint256"
        }
      ],
      "stateMutability": "view",
      "type": "function"
    },
    {
      "inputs": [],
      "name": "renounceOwnership",
      "outputs": [],
      "stateMutability": "nonpayable",
      "type": "function"
    },
    {
      "inputs": [
        {
          "internalType": "uint256",
          "name": "_r",
          "type": "uint256"
        },
        {
          "internalType": "uint256",
          "name": "_g",
          "type": "uint256"
        },
        {
          "internalType": "uint256",
          "name": "_b",
          "type": "uint256"
        }
      ],
      "name": "rgbToInt",
      "outputs": [
        {
          "internalType": "uint256",
          "name": "",
          "type": "uint256"
        }
      ],
      "stateMutability": "pure",
      "type": "function"
    },
    {
      "inputs": [
        {
          "internalType": "address",
          "name": "from",
          "type": "address"
        },
        {
          "internalType": "address",
          "name": "to",
          "type": "address"
        },
        {
          "internalType": "uint256",
          "name": "tokenId",
          "type": "uint256"
        }
      ],
      "name": "safeTransferFrom",
      "outputs": [],
      "stateMutability": "nonpayable",
      "type": "function"
    },
    {
      "inputs": [
        {
          "internalType": "address",
          "name": "from",
          "type": "address"
        },
        {
          "internalType": "address",
          "name": "to",
          "type": "address"
        },
        {
          "internalType": "uint256",
          "name": "tokenId",
          "type": "uint256"
        },
        {
          "internalType": "bytes",
          "name": "_data",
          "type": "bytes"
        }
      ],
      "name": "safeTransferFrom",
      "outputs": [],
      "stateMutability": "nonpayable",
      "type": "function"
    },
    {
      "inputs": [
        {
          "internalType": "address",
          "name": "operator",
          "type": "address"
        },
        {
          "internalType": "bool",
          "name": "approved",
          "type": "bool"
        }
      ],
      "name": "setApprovalForAll",
      "outputs": [],
      "stateMutability": "nonpayable",
      "type": "function"
    },
    {
      "inputs": [
        {
          "internalType": "uint256",
          "name": "maxSupply_",
          "type": "uint256"
        }
      ],
      "name": "setMaxSupply",
      "outputs": [],
      "stateMutability": "nonpayable",
      "type": "function"
    },
    {
      "inputs": [
        {
          "internalType": "bytes4",
          "name": "interfaceId",
          "type": "bytes4"
        }
      ],
      "name": "supportsInterface",
      "outputs": [
        {
          "internalType": "bool",
          "name": "",
          "type": "bool"
        }
      ],
      "stateMutability": "view",
      "type": "function"
    },
    {
      "inputs": [],
      "name": "symbol",
      "outputs": [
        {
          "internalType": "string",
          "name": "",
          "type": "string"
        }
      ],
      "stateMutability": "view",
      "type": "function"
    },
    {
      "inputs": [],
      "name": "toggleIsMintenabled",
      "outputs": [],
      "stateMutability": "nonpayable",
      "type": "function"
    },
    {
      "inputs": [
        {
          "internalType": "uint256",
          "name": "",
          "type": "uint256"
        }
      ],
      "name": "tokenToColor",
      "outputs": [
        {
          "internalType": "uint256",
          "name": "",
          "type": "uint256"
        }
      ],
      "stateMutability": "view",
      "type": "function"
    },
    {
      "inputs": [
        {
          "internalType": "uint256",
          "name": "",
          "type": "uint256"
        }
      ],
      "name": "tokenToOwner",
      "outputs": [
        {
          "internalType": "address payable",
          "name": "",
          "type": "address"
        }
      ],
      "stateMutability": "view",
      "type": "function"
    },
    {
      "inputs": [
        {
          "internalType": "uint256",
          "name": "tokenId",
          "type": "uint256"
        }
      ],
      "name": "tokenURI",
      "outputs": [
        {
          "internalType": "string",
          "name": "",
          "type": "string"
        }
      ],
      "stateMutability": "view",
      "type": "function"
    },
    {
      "inputs": [],
      "name": "totalSupply",
      "outputs": [
        {
          "internalType": "uint256",
          "name": "",
          "type": "uint256"
        }
      ],
      "stateMutability": "view",
      "type": "function"
    },
    {
      "inputs": [
        {
          "internalType": "address",
          "name": "from",
          "type": "address"
        },
        {
          "internalType": "address",
          "name": "to",
          "type": "address"
        },
        {
          "internalType": "uint256",
          "name": "tokenId",
          "type": "uint256"
        }
      ],
      "name": "transferFrom",
      "outputs": [],
      "stateMutability": "nonpayable",
      "type": "function"
    },
    {
      "inputs": [
        {
          "internalType": "address",
          "name": "newOwner",
          "type": "address"
        }
      ],
      "name": "transferOwnership",
      "outputs": [],
      "stateMutability": "nonpayable",
      "type": "function"
    }
  ],
  "bytecode": "0x6080604081905266038d7ea4c68000600755600a805460ff191660011790556200286a388190039081908339810160408190526200003d916200020f565b604080518082018252600881526710dbdb1bdb5a5b9d60c21b602080830191825283518085019094526004845263434f4c4f60e01b90840152815191929162000089916000916200014c565b5080516200009f9060019060208401906200014c565b505050620000bc620000b6620000f660201b60201c565b620000fa565b600f80546001600160a01b039283166001600160a01b03199182161790915560a06009556011805493909216921691909117905562000283565b3390565b600680546001600160a01b038381166001600160a01b0319831681179093556040519116919082907f8be0079c531659141344cd1fd0a4f28419497f9722a3daafe3b4186f6b6457e090600090a35050565b8280546200015a9062000246565b90600052602060002090601f0160209004810192826200017e5760008555620001c9565b82601f106200019957805160ff1916838001178555620001c9565b82800160010185558215620001c9579182015b82811115620001c9578251825591602001919060010190620001ac565b50620001d7929150620001db565b5090565b5b80821115620001d75760008155600101620001dc565b80516001600160a01b03811681146200020a57600080fd5b919050565b6000806040838503121562000222578182fd5b6200022d83620001f2565b91506200023d60208401620001f2565b90509250929050565b600181811c908216806200025b57607f821691505b602082108114156200027d57634e487b7160e01b600052602260045260246000fd5b50919050565b6125d780620002936000396000f3fe6080604052600436106102305760003560e01c806370a082311161012e578063a22cb465116100ab578063cc0b2c9f1161006f578063cc0b2c9f146106a5578063d5abeb01146106db578063e985e9c5146106f1578063f23a6e611461073a578063f2fde38b1461075a57600080fd5b8063a22cb465146105eb578063b88d4fde1461060b578063bc197c811461062b578063c4b4fced14610670578063c87b56dd1461068557600080fd5b80638d0cece2116100f25780638d0cece2146105635780638da5cb5b1461057857806395d89b4114610596578063990be248146105ab578063a09ae0aa146105cb57600080fd5b806370a08231146104c1578063715018a6146104e15780637241dfa0146104f65780637f47e66c1461052357806380b0d8c61461054357600080fd5b806318160ddd116101bc5780635ded5218116101805780635ded52181461041c578063600e77611461043e5780636352211e1461046b5780636817c76c1461048b5780636f8b44b0146104a157600080fd5b806318160ddd1461037157806322b68a141461038757806323b872dd146103c2578063346de50a146103e257806342842e0e146103fc57600080fd5b80630cd9ef67116102035780630cd9ef67146102e65780630d828fe0146103145780630fcf0e59146103345780631249c58b146103545780631683a10b1461035c57600080fd5b806301ffc9a71461023557806306fdde031461026a578063081812fc1461028c578063095ea7b3146102c4575b600080fd5b34801561024157600080fd5b5061025561025036600461219b565b61077a565b60405190151581526020015b60405180910390f35b34801561027657600080fd5b5061027f61078b565b6040516102619190612313565b34801561029857600080fd5b506102ac6102a73660046121d3565b61081d565b6040516001600160a01b039091168152602001610261565b3480156102d057600080fd5b506102e46102df366004612172565b6108b7565b005b3480156102f257600080fd5b506103066103013660046121eb565b6109cd565b604051908152602001610261565b34801561032057600080fd5b5061030661032f366004612172565b610a38565b34801561034057600080fd5b5061030661034f3660046121d3565b610a69565b6102e4610a8a565b34801561036857600080fd5b506102e4610ca5565b34801561037d57600080fd5b5061030660085481565b34801561039357600080fd5b506103a76103a23660046121d3565b610ce3565b60408051938452602084019290925290820152606001610261565b3480156103ce57600080fd5b506102e46103dd366004611ff6565b610d5c565b3480156103ee57600080fd5b50600a546102559060ff1681565b34801561040857600080fd5b506102e4610417366004611ff6565b610d8d565b34801561042857600080fd5b50610431610da8565b60405161026191906122cf565b34801561044a57600080fd5b506103066104593660046121d3565b600c6020526000908152604090205481565b34801561047757600080fd5b506102ac6104863660046121d3565b610dff565b34801561049757600080fd5b5061030660075481565b3480156104ad57600080fd5b506102e46104bc3660046121d3565b610e76565b3480156104cd57600080fd5b506103066104dc366004611f04565b610ea5565b3480156104ed57600080fd5b506102e4610f2c565b34801561050257600080fd5b50610306610511366004611f04565b600b6020526000908152604090205481565b34801561052f57600080fd5b5061030661053e36600461220c565b610f62565b34801561054f57600080fd5b5061043161055e366004611f04565b610f9c565b34801561056f57600080fd5b50610306600081565b34801561058457600080fd5b506006546001600160a01b03166102ac565b3480156105a257600080fd5b5061027f611008565b3480156105b757600080fd5b506102e46105c63660046121d3565b611017565b3480156105d757600080fd5b506103066105e63660046121eb565b611125565b3480156105f757600080fd5b506102e4610606366004612138565b61114f565b34801561061757600080fd5b506102e4610626366004612031565b61115a565b34801561063757600080fd5b50610657610646366004611f50565b63bc197c8160e01b95945050505050565b6040516001600160e01b03199091168152602001610261565b34801561067c57600080fd5b50610306600181565b34801561069157600080fd5b5061027f6106a03660046121d3565b611192565b3480156106b157600080fd5b506102ac6106c03660046121d3565b600e602052600090815260409020546001600160a01b031681565b3480156106e757600080fd5b5061030660095481565b3480156106fd57600080fd5b5061025561070c366004611f1e565b6001600160a01b03918216600090815260056020908152604080832093909416825291909152205460ff1690565b34801561074657600080fd5b50610657610755366004612097565b611279565b34801561076657600080fd5b506102e4610775366004611f04565b611472565b60006107858261150d565b92915050565b60606000805461079a906124df565b80601f01602080910402602001604051908101604052809291908181526020018280546107c6906124df565b80156108135780601f106107e857610100808354040283529160200191610813565b820191906000526020600020905b8154815290600101906020018083116107f657829003601f168201915b5050505050905090565b6000818152600260205260408120546001600160a01b031661089b5760405162461bcd60e51b815260206004820152602c60248201527f4552433732313a20617070726f76656420717565727920666f72206e6f6e657860448201526b34b9ba32b73a103a37b5b2b760a11b60648201526084015b60405180910390fd5b506000908152600460205260409020546001600160a01b031690565b60006108c282610dff565b9050806001600160a01b0316836001600160a01b031614156109305760405162461bcd60e51b815260206004820152602160248201527f4552433732313a20617070726f76616c20746f2063757272656e74206f776e656044820152603960f91b6064820152608401610892565b336001600160a01b038216148061094c575061094c813361070c565b6109be5760405162461bcd60e51b815260206004820152603860248201527f4552433732313a20617070726f76652063616c6c6572206973206e6f74206f7760448201527f6e6572206e6f7220617070726f76656420666f7220616c6c00000000000000006064820152608401610892565b6109c88383611532565b505050565b6000806000806109dc86610ce3565b92509250925060008060006109f088610ce3565b9250925092506000610a028583611125565b610a0c8785611125565b610a168987611125565b610a209190612451565b610a2a9190612451565b9a9950505050505050505050565b600d6020528160005260406000208181548110610a5457600080fd5b90600052602060002001600091509150505481565b60108181548110610a7957600080fd5b600091825260209091200154905081565b600a5460ff16610ad25760405162461bcd60e51b81526020600482015260136024820152721b5a5b9d1a5b99c81b9bdd08195b98589b1959606a1b6044820152606401610892565b336000908152600b6020526040902054600511610b2a5760405162461bcd60e51b8152602060048201526016602482015275195e18d959591cc81b585e081c195c881dd85b1b195d60521b6044820152606401610892565b6007543414610b695760405162461bcd60e51b815260206004820152600b60248201526a77726f6e672076616c756560a81b6044820152606401610892565b60085460095411610ba75760405162461bcd60e51b81526020600482015260086024820152671cdbdb19081bdd5d60c21b6044820152606401610892565b610bfa63010000004442600854604051602001610bd7939291909283526020830191909152604082015260600190565b6040516020818303038152906040528051906020012060001c6105c69190612535565b600f546040516001600160a01b0390911690600090829047908381818185875af1925050503d8060008114610c4b576040519150601f19603f3d011682016040523d82523d6000602084013e610c50565b606091505b5050905080610ca15760405162461bcd60e51b815260206004820152601a60248201527f5472616e7366657220746f206a61636b706f74206661696c65640000000000006044820152606401610892565b5050565b6006546001600160a01b03163314610ccf5760405162461bcd60e51b81526004016108929061239a565b600a805460ff19811660ff90911615179055565b6000808080610cf56201000086612469565b90506000610100610d09836201000061247d565b610d13908861249c565b610d1d9190612469565b90506000610d2d8261010061247d565b610d3a846201000061247d565b610d44908961249c565b610d4e919061249c565b929791965091945092505050565b610d6633826115a0565b610d825760405162461bcd60e51b8152600401610892906123cf565b6109c8838383611697565b6109c88383836040518060200160405280600081525061115a565b6060601080548060200260200160405190810160405280929190818152602001828054801561081357602002820191906000526020600020905b815481526020019060010190808311610de2575050505050905090565b6000818152600260205260408120546001600160a01b0316806107855760405162461bcd60e51b815260206004820152602960248201527f4552433732313a206f776e657220717565727920666f72206e6f6e657869737460448201526832b73a103a37b5b2b760b91b6064820152608401610892565b6006546001600160a01b03163314610ea05760405162461bcd60e51b81526004016108929061239a565b600955565b60006001600160a01b038216610f105760405162461bcd60e51b815260206004820152602a60248201527f4552433732313a2062616c616e636520717565727920666f7220746865207a65604482015269726f206164647265737360b01b6064820152608401610892565b506001600160a01b031660009081526003602052604090205490565b6006546001600160a01b03163314610f565760405162461bcd60e51b81526004016108929061239a565b610f606000611833565b565b60008082610f728561010061247d565b610f7f876201000061247d565b610f899190612451565b610f939190612451565b95945050505050565b6001600160a01b0381166000908152600d6020908152604091829020805483518184028101840190945280845260609392830182828015610ffc57602002820191906000526020600020905b815481526020019060010190808311610fe8575b50505050509050919050565b60606001805461079a906124df565b336000908152600b602052604081208054916110328361251a565b9091555050600880549060006110478361251a565b90915550506008546110593382611885565b81600c600061106960018561249c565b81526020808201929092526040908101600090812093909355338352600d909152902061109760018361249c565b815460018181018455600093845260208420909101919091553391600e916110bf908561249c565b81526020810191909152604001600090812080546001600160a01b0319166001600160a01b0393909316929092179091556010805460018101825591527f1b6847dc741a1b0cd08d278845f9d819d87b734759afb55fe2de5cb82a9ae672019190915550565b60008183101561113e57611139838361249c565b611148565b611148828461249c565b9392505050565b610ca133838361189f565b61116433836115a0565b6111805760405162461bcd60e51b8152600401610892906123cf565b61118c8484848461196e565b50505050565b6000818152600260205260409020546060906001600160a01b03166112115760405162461bcd60e51b815260206004820152602f60248201527f4552433732314d657461646174613a2055524920717565727920666f72206e6f60448201526e3732bc34b9ba32b73a103a37b5b2b760891b6064820152608401610892565b600061122860408051602081019091526000815290565b905060008151116112485760405180602001604052806000815250611148565b80611252846119a1565b604051602001611263929190612263565b6040516020818303038152906040529392505050565b6011546000906001600160a01b031633146112d65760405162461bcd60e51b815260206004820181905260248201527f4f6e6c7920776f726b73207769746820616363657074656420455243313135356044820152606401610892565b600061131784848080601f016020809104026020016040519081016040528093929190818152602001838380828437600092019190915250611abb92505050565b60008181526012602090815260408083208a8452909152812080549293508792909190611345908490612451565b909155505060408051808201909152600a81526918dbdb1bdc939195125960b21b60208201526113759082611ac2565b61139e604051806040016040528060078152602001661d1bdad95b925160ca1b81525087611ac2565b856113de576000818152600c60205260409020546003906113c090600161247d565b6113ca9190612469565b6000828152600c6020526040902055611408565b6000818152600c60205260409020546113f890600361247d565b6000828152600c60205260409020555b6000818152600c6020526040902054601080548390811061143957634e487b7160e01b600052603260045260246000fd5b600091825260209091200155507ff23a6e612e1ff4830e658fe43f4e3cb4a5f8170bd5d9e69fb5d7a7fa9e4fdf97979650505050505050565b6006546001600160a01b0316331461149c5760405162461bcd60e51b81526004016108929061239a565b6001600160a01b0381166115015760405162461bcd60e51b815260206004820152602660248201527f4f776e61626c653a206e6577206f776e657220697320746865207a65726f206160448201526564647265737360d01b6064820152608401610892565b61150a81611833565b50565b60006001600160e01b03198216630271189760e51b1480610785575061078582611b07565b600081815260046020526040902080546001600160a01b0319166001600160a01b038416908117909155819061156782610dff565b6001600160a01b03167f8c5be1e5ebec7d5bd14f71427d1e84f3dd0314c0f7b2291e5b200ac8c7c3b92560405160405180910390a45050565b6000818152600260205260408120546001600160a01b03166116195760405162461bcd60e51b815260206004820152602c60248201527f4552433732313a206f70657261746f7220717565727920666f72206e6f6e657860448201526b34b9ba32b73a103a37b5b2b760a11b6064820152608401610892565b600061162483610dff565b9050806001600160a01b0316846001600160a01b0316148061165f5750836001600160a01b03166116548461081d565b6001600160a01b0316145b8061168f57506001600160a01b0380821660009081526005602090815260408083209388168352929052205460ff165b949350505050565b826001600160a01b03166116aa82610dff565b6001600160a01b03161461170e5760405162461bcd60e51b815260206004820152602560248201527f4552433732313a207472616e736665722066726f6d20696e636f72726563742060448201526437bbb732b960d91b6064820152608401610892565b6001600160a01b0382166117705760405162461bcd60e51b8152602060048201526024808201527f4552433732313a207472616e7366657220746f20746865207a65726f206164646044820152637265737360e01b6064820152608401610892565b61177b600082611532565b6001600160a01b03831660009081526003602052604081208054600192906117a490849061249c565b90915550506001600160a01b03821660009081526003602052604081208054600192906117d2908490612451565b909155505060008181526002602052604080822080546001600160a01b0319166001600160a01b0386811691821790925591518493918716917fddf252ad1be2c89b69c2b068fc378daa952ba7f163c4a11628f55a4df523b3ef91a4505050565b600680546001600160a01b038381166001600160a01b0319831681179093556040519116919082907f8be0079c531659141344cd1fd0a4f28419497f9722a3daafe3b4186f6b6457e090600090a35050565b610ca1828260405180602001604052806000815250611b57565b816001600160a01b0316836001600160a01b031614156119015760405162461bcd60e51b815260206004820152601960248201527f4552433732313a20617070726f766520746f2063616c6c6572000000000000006044820152606401610892565b6001600160a01b03838116600081815260056020908152604080832094871680845294825291829020805460ff191686151590811790915591519182527f17307eab39ab6107e8899845ad3d59bd9653f200f220920489ca2b5937696c31910160405180910390a3505050565b611979848484611697565b61198584848484611b8a565b61118c5760405162461bcd60e51b815260040161089290612348565b6060816119c55750506040805180820190915260018152600360fc1b602082015290565b8160005b81156119ef57806119d98161251a565b91506119e89050600a83612469565b91506119c9565b60008167ffffffffffffffff811115611a1857634e487b7160e01b600052604160045260246000fd5b6040519080825280601f01601f191660200182016040528015611a42576020820181803683370190505b5090505b841561168f57611a5760018361249c565b9150611a64600a86612535565b611a6f906030612451565b60f81b818381518110611a9257634e487b7160e01b600052603260045260246000fd5b60200101906001600160f81b031916908160001a905350611ab4600a86612469565b9450611a46565b6020015190565b610ca18282604051602401611ad8929190612326565b60408051601f198184030181529190526020810180516001600160e01b03166309710a9d60e41b179052611c97565b60006001600160e01b031982166380ac58cd60e01b1480611b3857506001600160e01b03198216635b5e139f60e01b145b8061078557506301ffc9a760e01b6001600160e01b0319831614610785565b611b618383611cb8565b611b6e6000848484611b8a565b6109c85760405162461bcd60e51b815260040161089290612348565b60006001600160a01b0384163b15611c8c57604051630a85bd0160e11b81526001600160a01b0385169063150b7a0290611bce903390899088908890600401612292565b602060405180830381600087803b158015611be857600080fd5b505af1925050508015611c18575060408051601f3d908101601f19168201909252611c15918101906121b7565b60015b611c72573d808015611c46576040519150601f19603f3d011682016040523d82523d6000602084013e611c4b565b606091505b508051611c6a5760405162461bcd60e51b815260040161089290612348565b805181602001fd5b6001600160e01b031916630a85bd0160e11b14905061168f565b506001949350505050565b80516a636f6e736f6c652e6c6f67602083016000808483855afa5050505050565b6001600160a01b038216611d0e5760405162461bcd60e51b815260206004820181905260248201527f4552433732313a206d696e7420746f20746865207a65726f20616464726573736044820152606401610892565b6000818152600260205260409020546001600160a01b031615611d735760405162461bcd60e51b815260206004820152601c60248201527f4552433732313a20746f6b656e20616c7265616479206d696e746564000000006044820152606401610892565b6001600160a01b0382166000908152600360205260408120805460019290611d9c908490612451565b909155505060008181526002602052604080822080546001600160a01b0319166001600160a01b03861690811790915590518392907fddf252ad1be2c89b69c2b068fc378daa952ba7f163c4a11628f55a4df523b3ef908290a45050565b80356001600160a01b0381168114611e1157600080fd5b919050565b600082601f830112611e26578081fd5b8135602067ffffffffffffffff821115611e4257611e42612575565b8160051b611e51828201612420565b838152828101908684018388018501891015611e6b578687fd5b8693505b85841015611e8d578035835260019390930192918401918401611e6f565b50979650505050505050565b600082601f830112611ea9578081fd5b813567ffffffffffffffff811115611ec357611ec3612575565b611ed6601f8201601f1916602001612420565b818152846020838601011115611eea578283fd5b816020850160208301379081016020019190915292915050565b600060208284031215611f15578081fd5b61114882611dfa565b60008060408385031215611f30578081fd5b611f3983611dfa565b9150611f4760208401611dfa565b90509250929050565b600080600080600060a08688031215611f67578081fd5b611f7086611dfa565b9450611f7e60208701611dfa565b9350604086013567ffffffffffffffff80821115611f9a578283fd5b611fa689838a01611e16565b94506060880135915080821115611fbb578283fd5b611fc789838a01611e16565b93506080880135915080821115611fdc578283fd5b50611fe988828901611e99565b9150509295509295909350565b60008060006060848603121561200a578283fd5b61201384611dfa565b925061202160208501611dfa565b9150604084013590509250925092565b60008060008060808587031215612046578384fd5b61204f85611dfa565b935061205d60208601611dfa565b925060408501359150606085013567ffffffffffffffff81111561207f578182fd5b61208b87828801611e99565b91505092959194509250565b60008060008060008060a087890312156120af578081fd5b6120b887611dfa565b95506120c660208801611dfa565b94506040870135935060608701359250608087013567ffffffffffffffff808211156120f0578283fd5b818901915089601f830112612103578283fd5b813581811115612111578384fd5b8a6020828501011115612122578384fd5b6020830194508093505050509295509295509295565b6000806040838503121561214a578182fd5b61215383611dfa565b915060208301358015158114612167578182fd5b809150509250929050565b60008060408385031215612184578182fd5b61218d83611dfa565b946020939093013593505050565b6000602082840312156121ac578081fd5b81356111488161258b565b6000602082840312156121c8578081fd5b81516111488161258b565b6000602082840312156121e4578081fd5b5035919050565b600080604083850312156121fd578182fd5b50508035926020909101359150565b600080600060608486031215612220578081fd5b505081359360208301359350604090920135919050565b6000815180845261224f8160208601602086016124b3565b601f01601f19169290920160200192915050565b600083516122758184602088016124b3565b8351908301906122898183602088016124b3565b01949350505050565b6001600160a01b03858116825284166020820152604081018390526080606082018190526000906122c590830184612237565b9695505050505050565b6020808252825182820181905260009190848201906040850190845b81811015612307578351835292840192918401916001016122eb565b50909695505050505050565b6020815260006111486020830184612237565b6040815260006123396040830185612237565b90508260208301529392505050565b60208082526032908201527f4552433732313a207472616e7366657220746f206e6f6e20455243373231526560408201527131b2b4bb32b91034b6b83632b6b2b73a32b960711b606082015260800190565b6020808252818101527f4f776e61626c653a2063616c6c6572206973206e6f7420746865206f776e6572604082015260600190565b60208082526031908201527f4552433732313a207472616e736665722063616c6c6572206973206e6f74206f6040820152701ddb995c881b9bdc88185c1c1c9bdd9959607a1b606082015260800190565b604051601f8201601f1916810167ffffffffffffffff8111828210171561244957612449612575565b604052919050565b6000821982111561246457612464612549565b500190565b6000826124785761247861255f565b500490565b600081600019048311821515161561249757612497612549565b500290565b6000828210156124ae576124ae612549565b500390565b60005b838110156124ce5781810151838201526020016124b6565b8381111561118c5750506000910152565b600181811c908216806124f357607f821691505b6020821081141561251457634e487b7160e01b600052602260045260246000fd5b50919050565b600060001982141561252e5761252e612549565b5060010190565b6000826125445761254461255f565b500690565b634e487b7160e01b600052601160045260246000fd5b634e487b7160e01b600052601260045260246000fd5b634e487b7160e01b600052604160045260246000fd5b6001600160e01b03198116811461150a57600080fdfea26469706673582212201248c8038fe179a18b75f59763a101060391da889a13183a132e03e160a31e8764736f6c63430008040033",
  "linkReferences": {},
  "deployedLinkReferences": {}
}