{
  "_format": "hh-sol-artifact-1",
  "contractName": "ColorModifiers",
  "sourceName": "contracts/ColorModifiers.sol",
  "abi": [
    {
      "inputs": [
        {
          "internalType": "address",
          "name": "_jackpotAddress",
          "type": "address"
        }
      ],
      "stateMutability": "nonpayable",
      "type": "constructor"
    },
    {
      "anonymous": false,
      "inputs": [
        {
          "indexed": true,
          "internalType": "address",
          "name": "account",
          "type": "address"
        },
        {
          "indexed": true,
          "internalType": "address",
          "name": "operator",
          "type": "address"
        },
        {
          "indexed": false,
          "internalType": "bool",
          "name": "approved",
          "type": "bool"
        }
      ],
      "name": "ApprovalForAll",
      "type": "event"
    },
    {
      "anonymous": false,
      "inputs": [
        {
          "indexed": true,
          "internalType": "address",
          "name": "previousOwner",
          "type": "address"
        },
        {
          "indexed": true,
          "internalType": "address",
          "name": "newOwner",
          "type": "address"
        }
      ],
      "name": "OwnershipTransferred",
      "type": "event"
    },
    {
      "anonymous": false,
      "inputs": [
        {
          "indexed": true,
          "internalType": "address",
          "name": "operator",
          "type": "address"
        },
        {
          "indexed": true,
          "internalType": "address",
          "name": "from",
          "type": "address"
        },
        {
          "indexed": true,
          "internalType": "address",
          "name": "to",
          "type": "address"
        },
        {
          "indexed": false,
          "internalType": "uint256[]",
          "name": "ids",
          "type": "uint256[]"
        },
        {
          "indexed": false,
          "internalType": "uint256[]",
          "name": "values",
          "type": "uint256[]"
        }
      ],
      "name": "TransferBatch",
      "type": "event"
    },
    {
      "anonymous": false,
      "inputs": [
        {
          "indexed": true,
          "internalType": "address",
          "name": "operator",
          "type": "address"
        },
        {
          "indexed": true,
          "internalType": "address",
          "name": "from",
          "type": "address"
        },
        {
          "indexed": true,
          "internalType": "address",
          "name": "to",
          "type": "address"
        },
        {
          "indexed": false,
          "internalType": "uint256",
          "name": "id",
          "type": "uint256"
        },
        {
          "indexed": false,
          "internalType": "uint256",
          "name": "value",
          "type": "uint256"
        }
      ],
      "name": "TransferSingle",
      "type": "event"
    },
    {
      "anonymous": false,
      "inputs": [
        {
          "indexed": false,
          "internalType": "string",
          "name": "value",
          "type": "string"
        },
        {
          "indexed": true,
          "internalType": "uint256",
          "name": "id",
          "type": "uint256"
        }
      ],
      "name": "URI",
      "type": "event"
    },
    {
      "inputs": [],
      "name": "DARKPAINT",
      "outputs": [
        {
          "internalType": "uint256",
          "name": "",
          "type": "uint256"
        }
      ],
      "stateMutability": "view",
      "type": "function"
    },
    {
      "inputs": [],
      "name": "WHITEPAINT",
      "outputs": [
        {
          "internalType": "uint256",
          "name": "",
          "type": "uint256"
        }
      ],
      "stateMutability": "view",
      "type": "function"
    },
    {
      "inputs": [
        {
          "internalType": "address",
          "name": "account",
          "type": "address"
        },
        {
          "internalType": "uint256",
          "name": "id",
          "type": "uint256"
        }
      ],
      "name": "balanceOf",
      "outputs": [
        {
          "internalType": "uint256",
          "name": "",
          "type": "uint256"
        }
      ],
      "stateMutability": "view",
      "type": "function"
    },
    {
      "inputs": [
        {
          "internalType": "address[]",
          "name": "accounts",
          "type": "address[]"
        },
        {
          "internalType": "uint256[]",
          "name": "ids",
          "type": "uint256[]"
        }
      ],
      "name": "balanceOfBatch",
      "outputs": [
        {
          "internalType": "uint256[]",
          "name": "",
          "type": "uint256[]"
        }
      ],
      "stateMutability": "view",
      "type": "function"
    },
    {
      "inputs": [
        {
          "internalType": "address",
          "name": "owner",
          "type": "address"
        }
      ],
      "name": "getBalanceDarkPaint",
      "outputs": [
        {
          "internalType": "uint256",
          "name": "",
          "type": "uint256"
        }
      ],
      "stateMutability": "view",
      "type": "function"
    },
    {
      "inputs": [
        {
          "internalType": "address",
          "name": "owner",
          "type": "address"
        }
      ],
      "name": "getBalanceWhitePaint",
      "outputs": [
        {
          "internalType": "uint256",
          "name": "",
          "type": "uint256"
        }
      ],
      "stateMutability": "view",
      "type": "function"
    },
    {
      "inputs": [
        {
          "internalType": "address",
          "name": "account",
          "type": "address"
        },
        {
          "internalType": "address",
          "name": "operator",
          "type": "address"
        }
      ],
      "name": "isApprovedForAll",
      "outputs": [
        {
          "internalType": "bool",
          "name": "",
          "type": "bool"
        }
      ],
      "stateMutability": "view",
      "type": "function"
    },
    {
      "inputs": [],
      "name": "mint",
      "outputs": [],
      "stateMutability": "nonpayable",
      "type": "function"
    },
    {
      "inputs": [
        {
          "internalType": "uint256",
          "name": "tokenId",
          "type": "uint256"
        },
        {
          "internalType": "uint256",
          "name": "amount",
          "type": "uint256"
        }
      ],
      "name": "mintPayable",
      "outputs": [],
      "stateMutability": "payable",
      "type": "function"
    },
    {
      "inputs": [],
      "name": "mintPrice",
      "outputs": [
        {
          "internalType": "uint256",
          "name": "",
          "type": "uint256"
        }
      ],
      "stateMutability": "view",
      "type": "function"
    },
    {
      "inputs": [],
      "name": "name",
      "outputs": [
        {
          "internalType": "string",
          "name": "",
          "type": "string"
        }
      ],
      "stateMutability": "pure",
      "type": "function"
    },
    {
      "inputs": [],
      "name": "owner",
      "outputs": [
        {
          "internalType": "address",
          "name": "",
          "type": "address"
        }
      ],
      "stateMutability": "view",
      "type": "function"
    },
    {
      "inputs": [],
      "name": "renounceOwnership",
      "outputs": [],
      "stateMutability": "nonpayable",
      "type": "function"
    },
    {
      "inputs": [
        {
          "internalType": "address",
          "name": "from",
          "type": "address"
        },
        {
          "internalType": "address",
          "name": "to",
          "type": "address"
        },
        {
          "internalType": "uint256[]",
          "name": "ids",
          "type": "uint256[]"
        },
        {
          "internalType": "uint256[]",
          "name": "amounts",
          "type": "uint256[]"
        },
        {
          "internalType": "bytes",
          "name": "data",
          "type": "bytes"
        }
      ],
      "name": "safeBatchTransferFrom",
      "outputs": [],
      "stateMutability": "nonpayable",
      "type": "function"
    },
    {
      "inputs": [
        {
          "internalType": "address",
          "name": "from",
          "type": "address"
        },
        {
          "internalType": "address",
          "name": "to",
          "type": "address"
        },
        {
          "internalType": "uint256",
          "name": "id",
          "type": "uint256"
        },
        {
          "internalType": "uint256",
          "name": "amount",
          "type": "uint256"
        },
        {
          "internalType": "bytes",
          "name": "data",
          "type": "bytes"
        }
      ],
      "name": "safeTransferFrom",
      "outputs": [],
      "stateMutability": "nonpayable",
      "type": "function"
    },
    {
      "inputs": [
        {
          "internalType": "address",
          "name": "operator",
          "type": "address"
        },
        {
          "internalType": "bool",
          "name": "approved",
          "type": "bool"
        }
      ],
      "name": "setApprovalForAll",
      "outputs": [],
      "stateMutability": "nonpayable",
      "type": "function"
    },
    {
      "inputs": [
        {
          "internalType": "bytes4",
          "name": "interfaceId",
          "type": "bytes4"
        }
      ],
      "name": "supportsInterface",
      "outputs": [
        {
          "internalType": "bool",
          "name": "",
          "type": "bool"
        }
      ],
      "stateMutability": "view",
      "type": "function"
    },
    {
      "inputs": [],
      "name": "symbol",
      "outputs": [
        {
          "internalType": "string",
          "name": "",
          "type": "string"
        }
      ],
      "stateMutability": "pure",
      "type": "function"
    },
    {
      "inputs": [
        {
          "internalType": "address",
          "name": "newOwner",
          "type": "address"
        }
      ],
      "name": "transferOwnership",
      "outputs": [],
      "stateMutability": "nonpayable",
      "type": "function"
    },
    {
      "inputs": [
        {
          "internalType": "uint256",
          "name": "",
          "type": "uint256"
        }
      ],
      "name": "uri",
      "outputs": [
        {
          "internalType": "string",
          "name": "",
          "type": "string"
        }
      ],
      "stateMutability": "view",
      "type": "function"
    }
  ],
  "bytecode": "0x60806040526509184e72a0006005553480156200001b57600080fd5b5060405162001cfc38038062001cfc8339810160408190526200003e91620001a6565b60405180606001604052806026815260200162001cd660269139620000638162000095565b506200006f33620000ae565b600480546001600160a01b0319166001600160a01b039290921691909117905562000213565b8051620000aa90600290602084019062000100565b5050565b600380546001600160a01b038381166001600160a01b0319831681179093556040519116919082907f8be0079c531659141344cd1fd0a4f28419497f9722a3daafe3b4186f6b6457e090600090a35050565b8280546200010e90620001d6565b90600052602060002090601f0160209004810192826200013257600085556200017d565b82601f106200014d57805160ff19168380011785556200017d565b828001600101855582156200017d579182015b828111156200017d57825182559160200191906001019062000160565b506200018b9291506200018f565b5090565b5b808211156200018b576000815560010162000190565b600060208284031215620001b8578081fd5b81516001600160a01b0381168114620001cf578182fd5b9392505050565b600181811c90821680620001eb57607f821691505b602082108114156200020d57634e487b7160e01b600052602260045260246000fd5b50919050565b611ab380620002236000396000f3fe60806040526004361061011e5760003560e01c80637745d080116100a0578063c4b4fced11610064578063c4b4fced14610336578063d467f1521461034b578063e985e9c51461036b578063f242432a146103b4578063f2fde38b146103d457600080fd5b80637745d080146102955780638d0cece2146102a85780638da5cb5b146102bd57806395d89b41146102e5578063a22cb4651461031657600080fd5b80632eb2c2d6116100e75780632eb2c2d6146101fd57806339c1c8411461021d5780634e1273f41461023d5780636817c76c1461026a578063715018a61461028057600080fd5b8062fdd58e1461012357806301ffc9a71461015657806306fdde03146101865780630e89341c146101c65780631249c58b146101e6575b600080fd5b34801561012f57600080fd5b5061014361013e366004611503565b6103f4565b6040519081526020015b60405180910390f35b34801561016257600080fd5b506101766101713660046115f7565b61048b565b604051901515815260200161014d565b34801561019257600080fd5b5060408051808201909152600e81526d436f6c6f724d6f6469666965727360901b60208201525b60405161014d91906117d1565b3480156101d257600080fd5b506101b96101e136600461162f565b6104dd565b3480156101f257600080fd5b506101fb610571565b005b34801561020957600080fd5b506101fb6102183660046113c0565b6105ad565b34801561022957600080fd5b5061014361023836600461136d565b610644565b34801561024957600080fd5b5061025d61025836600461152c565b610651565b60405161014d9190611790565b34801561027657600080fd5b5061014360055481565b34801561028c57600080fd5b506101fb6107b3565b6101fb6102a3366004611647565b610817565b3480156102b457600080fd5b50610143600081565b3480156102c957600080fd5b506003546040516001600160a01b03909116815260200161014d565b3480156102f157600080fd5b5060408051808201909152600881526721a62926a7a224a360c11b60208201526101b9565b34801561032257600080fd5b506101fb6103313660046114c9565b61091f565b34801561034257600080fd5b50610143600181565b34801561035757600080fd5b5061014361036636600461136d565b61092e565b34801561037757600080fd5b5061017661038636600461138e565b6001600160a01b03918216600090815260016020908152604080832093909416825291909152205460ff1690565b3480156103c057600080fd5b506101fb6103cf366004611466565b61093b565b3480156103e057600080fd5b506101fb6103ef36600461136d565b6109c2565b60006001600160a01b0383166104655760405162461bcd60e51b815260206004820152602b60248201527f455243313135353a2062616c616e636520717565727920666f7220746865207a60448201526a65726f206164647265737360a81b60648201526084015b60405180910390fd5b506000908152602081815260408083206001600160a01b03949094168352929052205490565b60006001600160e01b03198216636cdb3d1360e11b14806104bc57506001600160e01b031982166303a24d0760e21b145b806104d757506301ffc9a760e01b6001600160e01b03198316145b92915050565b6060600280546104ec90611916565b80601f016020809104026020016040519081016040528092919081815260200182805461051890611916565b80156105655780601f1061053a57610100808354040283529160200191610565565b820191906000526020600020905b81548152906001019060200180831161054857829003601f168201915b50505050509050919050565b61058e336000600260405180602001604052806000815250610a8d565b6105ab336001600260405180602001604052806000815250610a8d565b565b6001600160a01b0385163314806105c957506105c98533610386565b6106305760405162461bcd60e51b815260206004820152603260248201527f455243313135353a207472616e736665722063616c6c6572206973206e6f74206044820152711bdddb995c881b9bdc88185c1c1c9bdd995960721b606482015260840161045c565b61063d8585858585610b97565b5050505050565b60006104d78260006103f4565b606081518351146106b65760405162461bcd60e51b815260206004820152602960248201527f455243313135353a206163636f756e747320616e6420696473206c656e677468604482015268040dad2e6dac2e8c6d60bb1b606482015260840161045c565b6000835167ffffffffffffffff8111156106e057634e487b7160e01b600052604160045260246000fd5b604051908082528060200260200182016040528015610709578160200160208202803683370190505b50905060005b84518110156107ab5761077085828151811061073b57634e487b7160e01b600052603260045260246000fd5b602002602001015185838151811061076357634e487b7160e01b600052603260045260246000fd5b60200260200101516103f4565b82828151811061079057634e487b7160e01b600052603260045260246000fd5b60209081029190910101526107a48161197e565b905061070f565b509392505050565b6003546001600160a01b0316331461080d5760405162461bcd60e51b815260206004820181905260248201527f4f776e61626c653a2063616c6c6572206973206e6f7420746865206f776e6572604482015260640161045c565b6105ab6000610d90565b8060055461082591906118f7565b34146108615760405162461bcd60e51b815260206004820152600b60248201526a77726f6e672076616c756560a81b604482015260640161045c565b61087c33838360405180602001604052806000815250610a8d565b6004546040516001600160a01b0390911690600090829047908381818185875af1925050503d80600081146108cd576040519150601f19603f3d011682016040523d82523d6000602084013e6108d2565b606091505b50509050806109195760405162461bcd60e51b8152602060048201526013602482015272151c985b9cd9995c881d1bc81a9858dadc1bdd606a1b604482015260640161045c565b50505050565b61092a338383610de2565b5050565b60006104d78260016103f4565b6001600160a01b03851633148061095757506109578533610386565b6109b55760405162461bcd60e51b815260206004820152602960248201527f455243313135353a2063616c6c6572206973206e6f74206f776e6572206e6f7260448201526808185c1c1c9bdd995960ba1b606482015260840161045c565b61063d8585858585610ec3565b6003546001600160a01b03163314610a1c5760405162461bcd60e51b815260206004820181905260248201527f4f776e61626c653a2063616c6c6572206973206e6f7420746865206f776e6572604482015260640161045c565b6001600160a01b038116610a815760405162461bcd60e51b815260206004820152602660248201527f4f776e61626c653a206e6577206f776e657220697320746865207a65726f206160448201526564647265737360d01b606482015260840161045c565b610a8a81610d90565b50565b6001600160a01b038416610aed5760405162461bcd60e51b815260206004820152602160248201527f455243313135353a206d696e7420746f20746865207a65726f206164647265736044820152607360f81b606482015260840161045c565b33610b0781600087610afe88610fe0565b61063d88610fe0565b6000848152602081815260408083206001600160a01b038916845290915281208054859290610b379084906118df565b909155505060408051858152602081018590526001600160a01b0380881692600092918516917fc3d58168c5ae7397731d063d5bbf3d657854427343f4c083240f7aacaa2d0f62910160405180910390a461063d81600087878787611039565b8151835114610bf95760405162461bcd60e51b815260206004820152602860248201527f455243313135353a2069647320616e6420616d6f756e7473206c656e677468206044820152670dad2e6dac2e8c6d60c31b606482015260840161045c565b6001600160a01b038416610c1f5760405162461bcd60e51b815260040161045c9061182c565b3360005b8451811015610d22576000858281518110610c4e57634e487b7160e01b600052603260045260246000fd5b602002602001015190506000858381518110610c7a57634e487b7160e01b600052603260045260246000fd5b602090810291909101810151600084815280835260408082206001600160a01b038e168352909352919091205490915081811015610cca5760405162461bcd60e51b815260040161045c90611871565b6000838152602081815260408083206001600160a01b038e8116855292528083208585039055908b16825281208054849290610d079084906118df565b9250508190555050505080610d1b9061197e565b9050610c23565b50846001600160a01b0316866001600160a01b0316826001600160a01b03167f4a39dc06d4c0dbc64b70af90fd698a233a518aa5d07e595d983b8c0526c8f7fb8787604051610d729291906117a3565b60405180910390a4610d888187878787876111a4565b505050505050565b600380546001600160a01b038381166001600160a01b0319831681179093556040519116919082907f8be0079c531659141344cd1fd0a4f28419497f9722a3daafe3b4186f6b6457e090600090a35050565b816001600160a01b0316836001600160a01b03161415610e565760405162461bcd60e51b815260206004820152602960248201527f455243313135353a2073657474696e6720617070726f76616c20737461747573604482015268103337b91039b2b63360b91b606482015260840161045c565b6001600160a01b03838116600081815260016020908152604080832094871680845294825291829020805460ff191686151590811790915591519182527f17307eab39ab6107e8899845ad3d59bd9653f200f220920489ca2b5937696c31910160405180910390a3505050565b6001600160a01b038416610ee95760405162461bcd60e51b815260040161045c9061182c565b33610ef9818787610afe88610fe0565b6000848152602081815260408083206001600160a01b038a16845290915290205483811015610f3a5760405162461bcd60e51b815260040161045c90611871565b6000858152602081815260408083206001600160a01b038b8116855292528083208785039055908816825281208054869290610f779084906118df565b909155505060408051868152602081018690526001600160a01b03808916928a821692918616917fc3d58168c5ae7397731d063d5bbf3d657854427343f4c083240f7aacaa2d0f62910160405180910390a4610fd7828888888888611039565b50505050505050565b6040805160018082528183019092526060916000919060208083019080368337019050509050828160008151811061102857634e487b7160e01b600052603260045260246000fd5b602090810291909101015292915050565b6001600160a01b0384163b15610d885760405163f23a6e6160e01b81526001600160a01b0385169063f23a6e619061107d908990899088908890889060040161174b565b602060405180830381600087803b15801561109757600080fd5b505af19250505080156110c7575060408051601f3d908101601f191682019092526110c491810190611613565b60015b611174576110d36119c5565b806308c379a0141561110d57506110e86119dd565b806110f3575061110f565b8060405162461bcd60e51b815260040161045c91906117d1565b505b60405162461bcd60e51b815260206004820152603460248201527f455243313135353a207472616e7366657220746f206e6f6e20455243313135356044820152732932b1b2b4bb32b91034b6b83632b6b2b73a32b960611b606482015260840161045c565b6001600160e01b0319811663f23a6e6160e01b14610fd75760405162461bcd60e51b815260040161045c906117e4565b6001600160a01b0384163b15610d885760405163bc197c8160e01b81526001600160a01b0385169063bc197c81906111e890899089908890889088906004016116ed565b602060405180830381600087803b15801561120257600080fd5b505af1925050508015611232575060408051601f3d908101601f1916820190925261122f91810190611613565b60015b61123e576110d36119c5565b6001600160e01b0319811663bc197c8160e01b14610fd75760405162461bcd60e51b815260040161045c906117e4565b80356001600160a01b038116811461128557600080fd5b919050565b600082601f83011261129a578081fd5b813560206112a7826118bb565b6040516112b48282611951565b8381528281019150858301600585901b870184018810156112d3578586fd5b855b858110156112f1578135845292840192908401906001016112d5565b5090979650505050505050565b600082601f83011261130e578081fd5b813567ffffffffffffffff811115611328576113286119af565b60405161133f601f8301601f191660200182611951565b818152846020838601011115611353578283fd5b816020850160208301379081016020019190915292915050565b60006020828403121561137e578081fd5b6113878261126e565b9392505050565b600080604083850312156113a0578081fd5b6113a98361126e565b91506113b76020840161126e565b90509250929050565b600080600080600060a086880312156113d7578081fd5b6113e08661126e565b94506113ee6020870161126e565b9350604086013567ffffffffffffffff8082111561140a578283fd5b61141689838a0161128a565b9450606088013591508082111561142b578283fd5b61143789838a0161128a565b9350608088013591508082111561144c578283fd5b50611459888289016112fe565b9150509295509295909350565b600080600080600060a0868803121561147d578081fd5b6114868661126e565b94506114946020870161126e565b93506040860135925060608601359150608086013567ffffffffffffffff8111156114bd578182fd5b611459888289016112fe565b600080604083850312156114db578182fd5b6114e48361126e565b9150602083013580151581146114f8578182fd5b809150509250929050565b60008060408385031215611515578182fd5b61151e8361126e565b946020939093013593505050565b6000806040838503121561153e578182fd5b823567ffffffffffffffff80821115611555578384fd5b818501915085601f830112611568578384fd5b81356020611575826118bb565b6040516115828282611951565b8381528281019150858301600585901b870184018b10156115a1578889fd5b8896505b848710156115ca576115b68161126e565b8352600196909601959183019183016115a5565b50965050860135925050808211156115e0578283fd5b506115ed8582860161128a565b9150509250929050565b600060208284031215611608578081fd5b813561138781611a67565b600060208284031215611624578081fd5b815161138781611a67565b600060208284031215611640578081fd5b5035919050565b60008060408385031215611659578081fd5b50508035926020909101359150565b6000815180845260208085019450808401835b838110156116975781518752958201959082019060010161167b565b509495945050505050565b60008151808452815b818110156116c7576020818501810151868301820152016116ab565b818111156116d85782602083870101525b50601f01601f19169290920160200192915050565b6001600160a01b0386811682528516602082015260a06040820181905260009061171990830186611668565b828103606084015261172b8186611668565b9050828103608084015261173f81856116a2565b98975050505050505050565b6001600160a01b03868116825285166020820152604081018490526060810183905260a060808201819052600090611785908301846116a2565b979650505050505050565b6020815260006113876020830184611668565b6040815260006117b66040830185611668565b82810360208401526117c88185611668565b95945050505050565b60208152600061138760208301846116a2565b60208082526028908201527f455243313135353a204552433131353552656365697665722072656a656374656040820152676420746f6b656e7360c01b606082015260800190565b60208082526025908201527f455243313135353a207472616e7366657220746f20746865207a65726f206164604082015264647265737360d81b606082015260800190565b6020808252602a908201527f455243313135353a20696e73756666696369656e742062616c616e636520666f60408201526939103a3930b739b332b960b11b606082015260800190565b600067ffffffffffffffff8211156118d5576118d56119af565b5060051b60200190565b600082198211156118f2576118f2611999565b500190565b600081600019048311821515161561191157611911611999565b500290565b600181811c9082168061192a57607f821691505b6020821081141561194b57634e487b7160e01b600052602260045260246000fd5b50919050565b601f8201601f1916810167ffffffffffffffff81118282101715611977576119776119af565b6040525050565b600060001982141561199257611992611999565b5060010190565b634e487b7160e01b600052601160045260246000fd5b634e487b7160e01b600052604160045260246000fd5b600060033d11156119da57600481823e5160e01c5b90565b600060443d10156119eb5790565b6040516003193d81016004833e81513d67ffffffffffffffff8160248401118184111715611a1b57505050505090565b8285019150815181811115611a335750505050505090565b843d8701016020828501011115611a4d5750505050505090565b611a5c60208286010187611951565b509095945050505050565b6001600160e01b031981168114610a8a57600080fdfea264697066735822122024fbfd5307013bd41935970105dee27a317288a648699a956d2090950adcaf8a64736f6c6343000804003368747470733a2f2f67616d652e6578616d706c652f6170692f6974656d7b69647d2e6a736f6e",
  "linkReferences": {},
  "deployedLinkReferences": {}
}